:020000040800F2
:10000000C03A0120414800086D0300086F03000852
:1000100073030008770300087B030008000000005A
:10002000000000000000000000000000990200082D
:100030007F03000800000000F50200088D31000871
:100040005B4800085B4800085B4800085B48000804
:100050005B4800085B4800085B4800085B480008F4
:10006000810300085B4800085B4800085B48000803
:10007000410500085B4800085B4800085B48000831
:100080005B4800085B4800085B4800080D05000855
:10009000090400085B4800085B480008A303000847
:1000A0005B4800085B4800085B4800085B480008A4
:1000B000230500085B480008550D00085B48000850
:1000C0005B4800085B4800085B4800085B48000884
:1000D0005B4800085B4800085B4800085B48000874
:1000E0005B4800085B4800085B4800085B48000864
:1000F0005B4800085B4800085B4800085B48000854
:100100005B4800085B4800085B4800085B48000843
:100110005B4800085B4800085B4800085B48000833
:100120005B4800085B4800085B4800085B48000823
:100130005B4800085B4800085B480008F7040008BB
:10014000570400085B4800085B4800085B4800084B
:10015000C30300085B4800085B4800083B1900081F
:100160005B4800085B4800085B4800085B480008E3
:100170005B4800085B4800085B4800085B480008D3
:100180005B4800085B4800085B4800085B480008C3
:100190005B4800085B4800085B4800085B480008B3
:1001A00000000000000000005B48000800F002F8BA
:1001B00000F062F80AA090E8000C82448344AAF19F
:1001C0000107DA4501D100F057F8AFF2090EBAE89D
:1001D0000F0013F0010F18BFFB1A43F0010318477B
:1001E000A4E40000C4E400000A4410F8014B14F039
:1001F0000F0508BF10F8015B240908BF10F8014B78
:100200006D1E05D010F8013B6D1E01F8013BF9D1C0
:10021000641E03D0641E01F8015BFBD19142E4D35C
:10022000704700000023002400250026103A28BF54
:1002300078C1FBD8520728BF30C148BF0B60704758
:1002400066290EF0CE8064290BF0068475290BF028
:10025000038463290BF0C187002070471FB50EF09F
:10026000B6F80BF0FBFF0400002000210DF094FA1B
:10027000E0601FBD10B510BD0CF0F4F81146FFF79B
:10028000EDFF00F068F80CF012F903B4FFF7F2FF8D
:1002900003BC02F0F1FF00002C4B19680868B0E8BD
:1002A000F04F80F30988BFF36F8F4FF0000080F3A9
:1002B000118870470000000008480068006880F35B
:1002C00008884FF0000080F3148862B661B6BFF36F
:1002D0004F8FBFF36F8F00DF00BF00BF08ED00E05E
:1002E000DFF80C00016841F470010160704700BF45
:1002F00088ED00E0EFF30980BFF36F8F134B1A68AE
:100300001EF0100F08BF20ED108A20E9F04F10609A
:1003100009B44FF0500080F31188BFF34F8FBFF343
:100320006F8F09F003FF4FF0000080F3118809BCC4
:1003300019680868B0E8F04F1EF0100F08BFB0EC65
:10034000108A80F30988BFF36F8F70476001002027
:10035000EFF3058070474FF4407004F091FAB42039
:1003600002F01CFF02F0C0FD00BFFEE7704700BFB7
:10037000FEE700BFFEE700BFFEE700BFFEE77047F5
:1003800010B5042007F030FD38B17648006808B990
:10039000012000E0002073490860042007F02FFDD1
:1003A00010BD08B54FF4807007F01EFD20B16946FE
:1003B0006D48006808F090FE4FF4807007F01FFD54
:1003C00008BD08B569496A4805F0E9FF012816D15A
:1003D0006649674805F0FFFF6449654806F056F82E
:1003E00069466448006808F077FE009838B14FF01D
:1003F000805061490860BFF34F8FBFF36F8F5F4933
:100400005B4805F0E8FF08BD00B587B002215C48F5
:1004100005F09EFD58B101AA0021594805F015FCD0
:10042000022306AA01A95748006808F0D9FD022155
:10043000534805F028FE5449514805F066FD0698DA
:1004400038B14FF080504C490860BFF34F8FBFF375
:100450006F8F07B000BD00B52DED088B85B0022170
:100460004A4805F075FDE8B30221484805F00BFE47
:100470004549464805F049FD6A460021434805F0D4
:10048000E4FB0098A0F2015068BB4148DDF80B1076
:1004900001609DF80F1001710146B1F902000DF0E5
:1004A000DBFB41EC1B0B9FED3B0B53EC102B0DF0DA
:1004B00027FC41EC190B364890ED020A10EE101A99
:1004C00008460DF013FF41EC1A0B53EC192B0DF0FD
:1004D00023FE41EC180B0DF081F92D4988600020B6
:1004E000C86001E003E000E000BF00BF00BF05B04E
:1004F000BDEC088B00BD10B50121244805F028FD96
:1005000018B10121214805F0BEFD10BD10B5012133
:100510001B4805F01DFD18B10121194805F0B3FD78
:1005200010BD10B50121880706F039FD38B1012151
:10053000880706F045FD0121880706F02DFD10BD56
:1005400010B51649164805F02AFF012809D11349AC
:10055000134805F040FF1149114805F097FF02F0DC
:10056000BAFD10BDAC0242425C00002000880020B1
:10057000886402405800002004ED00E000080020DC
:100580000064004080000020080000320068004045
:10059000B8010020FCA9F1D24D62503F0088001044
:1005A000286002400CB5002001900090834800684C
:1005B00040F480308149086000BF8048006800F442
:1005C000003000900198401C0190009818B90198E3
:1005D000B0F5A04FF1D17948006800F4003010B1B7
:1005E0000120009001E0002000900098012860D1D7
:1005F00072484030006840F08050704940310860D7
:100600006F48006840F440406D4908606B4808300E
:1006100000686A49083108600846006840F40040F4
:1006200008600846006840F4A05008606548091F4B
:100630000860081F006840F08070091F086000BF54
:100640005E48006800F000700028F9D05C4800683F
:1006500040F480305A49086000BF5948406800F4AF
:1006600080300028F9D05648006840F400305449E2
:10067000086000BF5248406800F400300028F9D0FC
:1006800040F20570504908604C480830006820F07E
:1006900003004A49083108600846006840F002003B
:1006A000086000BF45480830006800F00C000828CA
:1006B000F8D10CBD10B54548006840F470004349BE
:1006C00008603E48006840F001003C490860002096
:1006D0003A4908310860394800683D4908403749BF
:1006E00008603C48091D0860081F006820F480204D
:1006F000091F0860002031490C310860FFF752FFE4
:100700004FF0006031498039086010BD70B500209D
:100710000022022300240221284D08352D6805F00F
:100720000C0020B1042806D0082834D107E02A4D57
:100730002A4E356033E02A4D284E35602FE01F4D9C
:100740002D1D2D68C5F380541C4D2D1D2D6805F001
:100750003F0154B1224DB5FBF1F5184E361D3668F8
:10076000C6F3881605FB06F209E01B4DB5FBF1F553
:10077000124E361D3668C6F3881605FB06F20F4D7D
:100780002D1D2D68C5F301456D1C6B00B2FBF3F503
:10079000124E356003E0104D104E356000BF00BFB3
:1007A000064D08352D68C5F303150E4E705D0B4DD3
:1007B0002D68C540094E356070BD0000003802400C
:1007C000007000400C5A4007003C024088ED00E0F9
:1007D000FFFFF6FE103000240024F400000000208B
:1007E000001BB70004000020D0ED000AF4EEC00AA0
:1007F000F1EE10FA01DD80ED000AD0ED000AB1EE55
:10080000401AF4EEC10AF1EE10FA03D2F1EE400AFA
:10081000C0ED000A704783634263016380ED000A04
:10082000C0ED010A80ED021A704780ED000AC0EDAC
:10083000010A80ED021ADFED6B1AC0ED061ADFED3A
:10084000691AC0ED071ADFED671AC0ED081ADFED6F
:10085000651AC0ED091A704700B50346881A00EE04
:10086000100AB8EEC00A83ED050A186B03283ED1C2
:1008700093ED000AD3ED050A20EE200A83ED060A67
:1008800093ED070AD3ED010A93ED051A00EE810AF4
:1008900083ED070A93ED050AD3ED040A30EE600AF2
:1008A000D3ED020A20EE200A83ED080AD3ED0E0AEA
:1008B000F8EE600AB0EE600A03F11C00FFF794FF47
:1008C00093ED060AD3ED070A30EE200AD3ED080AAD
:1008D00030EE200A83ED090AD3ED0D0AF8EE600A26
:1008E000B0EE600A03F12400FFF77EFF42E0186BD0
:1008F00004283FD193ED050AD3ED040A30EE600AD7
:10090000D3ED000A20EE200A83ED060A93ED010ADA
:10091000D3ED050A20EE200A83ED070A93ED050AC0
:10092000D3ED040AB0EE001A01EE600AD3ED030A1B
:1009300030EE200AD3ED020A20EE200A83ED080AE9
:1009400093ED060AD3ED070A30EE200AD3ED080A2C
:1009500030EE200AD3ED090A30EE200A83ED090AB1
:10096000D3ED0D0AF8EE600AB0EE600A03F1240040
:10097000FFF73AFF93ED040A83ED030A93ED050AAE
:1009800083ED040A93ED090A00BD2DE9F0412DED38
:10099000048B04460D4616461F46B0EE408AF0EE24
:1009A000608AB0EE419A1048E06310482064B0EECF
:1009B000491AF0EE680AB0EE480A3B46324629462C
:1009C0002046D4F83CC0E047B0EE491AF0EE680A81
:1009D000B0EE480A2046216C8847BDEC048BBDE888
:1009E000F081000000000000170800082B08000834
:1009F0001CB50121702004F0DAFA4FF40060009079
:100A000001208DF8040000208DF8060003208DF8E9
:100A1000050001208DF807006946DA4804F026F841
:100A20004FF4804000906946D74804F01FF81E201C
:100A300000906946D54804F019F84FF4F070009022
:100A40006946D24804F012F84FF48041CE4804F0D1
:100A500089F84FF40061CB4804F084F81E21CB489C
:100A600004F080F84FF4F071C84804F07BF81CBD26
:100A700000B58BB00121402004F0E0FA0121802074
:100A800004F095FA09220621C14804F07AF84020C2
:100A9000099002208DF8280003208DF829000020FD
:100AA0008DF82A0001208DF82B0009A9B84803F021
:100AB000DDFF5920ADF818000020ADF81A0040F60F
:100AC000E66007900020ADF820008DF8220006A90E
:100AD000B04805F0ACFD6020ADF804000120ADF891
:100AE00006000420ADF8080000200390ADF81000C7
:100AF0000820ADF812004001ADF814000020ADF858
:100B0000160001A9A34805F027FE0121A14805F020
:100B100017FE01219F4806F004FA0BB000BD00B596
:100B200085B00121022004F042FA0121880304F07B
:100B300096FA0420039000208DF8100003208DF811
:100B4000110001208DF8130003A9934803F08EFFD4
:100B50000221012004F08FFB0420009000208DF87A
:100B600004000C208DF8050001208DF80600684671
:100B700007F0D4F808208DF8080006208DF8090049
:100B800000208DF80A0001208DF80B0002A803F068
:100B90007CFE05B000BD1CB50121402004F007FA21
:100BA0004FF40050009001208DF8040000208DF8D3
:100BB000060003208DF8050001208DF80700694626
:100BC000724803F053FF1CBD10B5FFF711FFFFF78C
:100BD0004FFFFFF7A4FFFFF7DEFF10BD10B540F693
:100BE000B8306C493431086040F6E66069492C3110
:100BF0000860962009F061F940F6495065492C31AA
:100C00000860962009F059F940F6D63061492C3138
:100C10000860962009F051F900205E4934310860DF
:100C200010BD10B540F6B8305A493431086040F66E
:100C3000D63058492C310860962009F03EF940F62C
:100C4000495054492C310860962009F036F940F695
:100C5000E66050492C310860962009F02EF90020FA
:100C60004C493431086010BD10B540F6B8304949E0
:100C70003431086040F6E66046492C310860962021
:100C800009F01BF940F6495042492C310860962082
:100C900009F013F940F6D6303E492C310860962011
:100CA00009F00BF900203B493431086010BD10B544
:100CB00040F6B83037493431086040F6E6603549CF
:100CC0002C310860962009F0F8F840F6E6603149CA
:100CD0002C310860962009F0F0F840F649502D4973
:100CE0002C310860962009F0E8F8002029493431B9
:100CF000086010BD1FB50121042004F09FF93120C8
:100D000002905920ADF804000020ADF80C00ADF8B9
:100D100006000121214805F0F5FC01A91F4805F056
:100D200086FC01211D4805F00BFD012211461B48E0
:100D300006F01EF91E208DF8000004208DF8010039
:100D400000208DF8020001208DF80300684603F0B2
:100D50009CFD1FBD10B50121104806F020F90128A7
:100D600004D10F480068401C0D49086001210B4860
:100D700006F026F910BD10B5002009490860FFF7FC
:100D8000B9FF10BD001002400014024000180240DC
:100D9000001C02400018004000040240000800400F
:100DA0001400002000B597B00121022004F0FFF8E4
:100DB0000121102004F053F90121880504F0F7F80F
:100DC0008020159002208DF8580000208DF85A00E0
:100DD00003208DF8590000208DF85B0015A93A48D2
:100DE00003F044FE07221146374803F0CAFE374895
:100DF00004F07AFA364811900020ADF84800ADF8BA
:100E00004A004FF48060ADF84C000420ADF84E006D
:100E10000020ADF8500011A92C4804F0CCFA0121B3
:100E20002A4804F050FB01224021284804F0F8FB36
:100E300044208DF8400006208DF8410000208DF8F8
:100E4000420001208DF8430010A803F01EFD002190
:100E5000204805F047FA00BF1E48006800F0010076
:100E60000028F9D11B4805F061F94FF000600190AE
:100E70001648001D0290184803900020049012208C
:100E80000590002006904FF48060079000200890A5
:100E900009904FF480700A904FF440300B9000207E
:100EA0000C900D900E900F9001A90A4805F0E0F902
:100EB00001221021074805F0A2FA0121054805F09A
:100EC00011FA17B000BD00000004024000100140FC
:100ED000A086010088640240C801002000B58BB0E4
:100EE0000121084604F0AAF80121084604F05FF841
:100EF00001220021364803F044FE01221146344805
:100F000003F03FFE01220221314803F03AFE0122A4
:100F100003212F4803F035FE0F20099002208DF8A1
:100F2000280003208DF8290000208DF82A000120D8
:100F30008DF82B0009A9264803F098FD40F2833074
:100F4000ADF818000020ADF81A0040F2CF700790FD
:100F50000020ADF8200006A94FF0804005F067FBA7
:100F60006020ADF804000120ADF806000020ADF8C7
:100F700010006420039001A9000705F0EDFB01A912
:100F80004FF0804005F021FC01A94FF0804005F0B2
:100F900069FC01A94FF0804005F0CAFC0821C80691
:100FA00005F067FD0821C80605F06CFD0821C8069C
:100FB00005F075FD0821C80605F07AFD01218807B6
:100FC00005F0A0FB0121880705F0BAFB0BB000BDBE
:100FD0000000024000B58BB00121480604F02EF855
:100FE0000121082003F0E3FF0320099002208DF87F
:100FF000280003208DF8290009A9A34803F036FD35
:1010000009220021A04803F0BCFD092201219E48CD
:1010100003F0B7FD14208DF8200005208DF8210085
:1010200000208DF8220001208DF8230008A803F08D
:101030002CFC13208DF8200005208DF821000020C5
:101040008DF8220001208DF8230008A803F01DFC74
:101050008E4804F073FB05A804F094FC00208DF882
:101060001A008DF81B008DF81C008DF81D008DF8FE
:101070001E0001208DF81F0000208DF816008DF84D
:10108000170005208DF8180007208DF8190003209F
:10109000ADF8140005A97D4804F069FB00208DF827
:1010A0000E008DF80F0001208DF810000020ADF823
:1010B0000400ADF80600ADF80800ADF80A00ADF880
:1010C0000C0001208DF8110001A804F0DAFB0122C8
:1010D00002216E4804F0D4FE0BB000BD00B58BB009
:1010E0000121480603F0AAFF0121880603F0A6FFAC
:1010F0000121022003F05BFF4FF4405009900220D1
:101100008DF828008DF8290009A9614803F0AEFC8C
:1011100009220C215E4803F034FD09220D215C48B0
:1011200003F02FFD40208DF8200004208DF82100D1
:1011300000208DF8220001208DF8230008A803F07C
:10114000A4FB3F208DF8200006208DF82100002010
:101150008DF8220001208DF8230008A803F095FBEC
:101160004C4804F0EBFA05A804F00CFC00208DF8C4
:101170001A008DF81B008DF81C008DF81D008DF8ED
:101180001E0001208DF81F0000208DF816008DF83C
:10119000170005208DF8180007208DF8190003208E
:1011A000ADF8140005A93B4804F0E1FA0E208DF8D3
:1011B0000E0000208DF80F0001208DF81000002097
:1011C000ADF80400ADF80600ADF80800ADF80A006F
:1011D000ADF80C0001208DF8110001A804F051FBBE
:1011E000012202212B4804F04BFE0122114629481E
:1011F00004F046FE0BB000BD10B5FFF7EBFEFFF7A5
:101200006DFF10BD2DE9F04186B006460D4614462F
:101210004FF00008019500208DF80C008DF80D00AE
:1012200008208DF80E002088000A8DF80F00217824
:101230008DF810106088010A8DF81110A1788DF8D2
:101240001210A088010A8DF8131021798DF814105E
:10125000E088010A8DF81510A1798DF8161001A902
:10126000304604F0FDFB074600BF3946304604F027
:101270008FFC30B9404608F101084FF6FF718842F3
:10128000F3DB06B0BDE8F081000C024000640040D2
:1012900000040240006800400146086870470146AB
:1012A0004948814201D2002070474848814201D21A
:1012B0000820F9E74648814201D21020F4E745486A
:1012C000814201D21820EFE74348814201D2202019
:1012D000EAE74248814201D22820E5E740488142BE
:1012E00001D23020E0E73F48814201D23820DBE7DD
:1012F0003D48814201D24020D6E73C48814201D29C
:101300004820D1E73A48814201D25020CCE758200A
:10131000CAE72DE9F04704460E4617464FF0090884
:101320000025A946B4F1006F02D304F0030008B110
:10133000BDE8F08706F0D6F9002006F0B6F925469C
:1013400004EB87092B48854215D211E02846FFF7A8
:10135000A3FF401C58B12846FFF7A1FF8246022197
:1013600006F014FA8046B8F1090F01D002E02D1DF5
:101370004D45EBD300BFB8F1090F0CD108E0204672
:10138000316806F01FFB092800D003E0241D361D3C
:101390004C45F4D300BF012006F087F906F0AFF901
:1013A00000BFC5E730B503460C461546002206E0EF
:1013B0001846FFF771FF44F822001B1D521CAA4279
:1013C000F6D330BD70477047004000080080000829
:1013D00000C0000800000108000002080000040826
:1013E000000006080000080800000A0800000C08B9
:1013F00000000E080000FF1F1CB50121082003F0AB
:10140000D6FD4FF44070009002208DF804000020BB
:101410008DF8060003208DF8050000208DF80700E8
:101420006946494803F022FB07220921464803F098
:10143000A8FB07220821444803F0A3FB1CBD1FB5ED
:101440000121880403F0FAFD404803F04DFF4FF4FA
:10145000E13000900020ADF80400ADF80600ADF8D2
:1014600008000C20ADF80A000020ADF80C00694619
:10147000364803F0A0FF0121344804F024F801228B
:101480004021324804F0CCF81FBD08B50C208DF87F
:10149000000000208DF8010003208DF802000120DB
:1014A0008DF80300684603F0F0F908BD00B58FB071
:1014B0000121480503F07BFD0021254804F012FFBF
:1014C00000BF23482838806A00F001000028F8D1C6
:1014D0001F4804F02BFE4FF0006000901B48001DD9
:1014E00001901C48029000200390082004900020E6
:1014F00005904FF4806006900020079008904FF40C
:10150000807009904FF440300A9000200B900C90AE
:101510000D900E9069460E4804F0AAFE012210219B
:101520000B4804F06CFF0121094804F0DBFE0FB00A
:1015300000BD10B5FFF760FFFFF781FFFFF7A5FFC4
:10154000FFF7B4FF10BD0000000C0240004800404F
:10155000286002403006002000B597B0012120200D
:1015600003F07DFD0121402003F021FD01218805CC
:1015700003F01DFD08220921FE4803F002FB0822AA
:101580000E21FC4803F0FDFA4FF400701590022084
:101590008DF8580003208DF8590000208DF85A006E
:1015A00001208DF85B0015A9F24803F05FFAF248BC
:1015B00004F0BCFD0021F04804F094FE00BFEE48AA
:1015C00004F0DDFE0028FAD14FF020600190EB48D6
:1015D0000290EB48039000200490782005900020B2
:1015E00006904FF4806007900020089009904FF417
:1015F00080700A9000020B9000200C9003200D9048
:1016000000200E900F9001A9DB4804F031FE01216B
:10161000D94804F067FED948001F03F065FE4FF477
:10162000E13011900020ADF84800ADF84A00ADF867
:101630004C00ADF850000420ADF84E0011A9CF4881
:10164000001F03F0B8FE0121CC48001F03F03BFF50
:10165000002240F22661C948001F03F0EAFF002281
:1016600040F22551C548001F03F0E3FF012240F27C
:101670002441C248001F03F0DCFF47208DF84000E2
:1016800003208DF841008DF8420001208DF84300C1
:1016900010A803F0FAF801224021B848001F03F017
:1016A000BFFF17B000BD10B50246002329E000209F
:1016B00021E002EB8004D4ED000A441C02EB840418
:1016C00094ED001AF4EEC10AF1EE10FA11DD02EB0E
:1016D000800494ED000A441C02EB8404D4ED000A5B
:1016E00002EB8004C4ED000A441C02EB840484ED88
:1016F000000A441CE0B24C1EE41A8442D9DC5C1C93
:10170000E3B24C1E9C42D2DC10BD30B5034605E06E
:1017100013F8010B80EA02049A48025D0800A1F167
:101720000101F5D1104630BD70B505460C460026C6
:101730000DB1022C01D8002070BD611EFF22284689
:10174000FFF7E3FF0646601E285CB04201D101208E
:10175000F2E70020F0E770B52DED028B9FED8A0ACD
:10176000B0EE408A894804F0E0FDC0F17800C5B2CF
:101770000024A4E08248005DA5282DD1611D804889
:10178000FFF7D2FF002827D07D49601C095C7C4A06
:10179000A01C105C41EA00207D49A1F8010011461F
:1017A000E01C085C7A49C8701146601D095CA01DE8
:1017B000105C41EA002000B27549C8800846C08824
:1017C00001280AD10846B0F801206D4BE01D191818
:1017D0006F4808300AF0BFF970E06D48C0880228F1
:1017E00013D16749E01D085C6949097C60F3030176
:1017F000674801746249E01D085C00206449097C67
:1018000060F307116248017458E06148C0880328FA
:101810000AD15F48B0F80120594BE01D19185C4807
:1018200011300AF098F949E05948C08804280AD1D3
:101830005748B0F80120524BE01D19185448173092
:101840000AF089F93AE05248C08805280AD1504880
:10185000B0F801204A4BE01D19184D482B300AF012
:101860007AF92BE04A48C08806280AD14848B0F8DF
:101870000120434BE01D191845482D300AF06BF943
:101880001CE04348C08807280AD14148B0F801202D
:101890003B4BE01D19183E482E300AF05CF90DE074
:1018A0003B48C088082809D13948B0F80120344B9A
:1018B000E01D1918364830300AF04DF9641CAC426E
:1018C000FFF458AF3248D0F81F0032494860304822
:1018D000D0F81F003049314A127841F822002F48D1
:1018E0000078401C2D49087008460078052821D151
:1018F0000020087001202A49087005212648FFF7BA
:10190000D2FE012409E0244800EB840090ED000A97
:1019100030EE080AB0EE408A641C032CF3D9B0EE16
:10192000080AC8EE000A1B48C0ED060A9FED160A19
:10193000B0EE408ABDEC028B70BD10B5002400BF34
:1019400040F224410D48001F03F0AEFE60B30B4887
:10195000001F0488001D048800200D490864002130
:10196000054804F0BFFCFFF7F6FE0E49024804F0FC
:1019700032FD1AE0001802404064024004140140A5
:10198000DC010020E7E3000800000000886002405E
:101990005402002098020020D00200201E000020E7
:1019A0001B000020400F001007E078210D4804F0D4
:1019B000BAFC01210B4804F095FC00BF10BD70B5C6
:1019C00005460C4600260DB1022C00D870BD611EE4
:1019D000FF222846FFF799FE0646601E2E5400BFE0
:1019E000F4E70000406402401CB500200090019024
:1019F00000BFFE48C068401CFC49C860FC488069C4
:101A0000401CFB498861FB48D0F8A000401CF94904
:101A1000C1F8A000F848D0F8A000401CF649C1F871
:101A2000A000F648806C401CF4498864F448006CBF
:101A3000401CF3490864002012E000EB400101EB78
:101A40000011F04A02EB8101896C491C00EB400255
:101A500002EB0012EB4B03EB82029164411CC8B213
:101A60000428EADBE148C0680A2808D30121E648D7
:101A7000006806F0C8FC0020E449086002E001208C
:101A8000E2490860DA4880690A2809D90221DE485B
:101A9000006806F0B8FC0020DC49091D086003E07E
:101AA0000120DA49091D0860D248D0F8A0000A28B0
:101AB00009D90421D448006806F0A5FC0020D349C8
:101AC0000831086003E00120D04908310860CA48A5
:101AD000D0F8A0000A2809D90821CB48006806F0F0
:101AE00092FC0020C9490C31086003E00120C7497D
:101AF0000C310860C148806C0A280AD94FF4807103
:101B0000C148006806F07FFC0020C0491031086021
:101B100003E00120BD4910310860B948006C0A2873
:101B20000AD94FF40071B848006806F06CFC002038
:101B3000B6491831086003E00120B4491831086043
:101B400000241CE004EB440000EB0410AD4901EB61
:101B50008000806C0A280CD9201D012202FA00F1B5
:101B6000A948006806F04FFC0020A849143108601D
:101B700007E00120A54914310860601CC4B2042CA0
:101B8000E0DB00BF0A2008F098F96A464FF40071C4
:101B90009F48FFF737FB2CE71FB500BF00BF08F0D9
:101BA000D4FC039000BF002269469A48006807F001
:101BB00018FB00219848006806F0CAFD044604F0AE
:101BC0000100B8B3BDF8060010B900209349488061
:101BD000BDF80000BDF802100844BDF80410084428
:101BE00000B288494880BDF800004042BDF80210AC
:101BF0000844BDF80410084401B28248A0F84E1011
:101C0000BDF80000BDF802100844BDF80410401AE9
:101C100001B27C48A0F89A10BDF800004042BDF81F
:101C200002100844BDF80410401A01B27548A0F82B
:101C3000E6100BE0FFE70020724948800021714860
:101C4000A0F84E10A0F89A10A0F8E610082103A8FA
:101C500008F0CFF8A7E700BF4FF0FF3170480068E9
:101C600007F090F86F4802F067F8F5E786B000BF1C
:101C70004FF0FF3201A96C48006807F0B2FA00BFCC
:101C800000BFF5E786B000BF4FF0FF3201A96748FB
:101C9000006807F0A6FA0198A0F20120072876D282
:101CA000DFE800F00415293D516376009DF812101D
:101CB0009DF8110041EA002000B25249088000203E
:101CC000886410215048006806F042FD73E09DF8DA
:101CD00012109DF8110041EA002000B24949A1F814
:101CE0004C0000214748C0F8941020214648006865
:101CF00006F02EFD5FE09DF812109DF8110041EAFC
:101D0000002000B23F49A1F8980000213D48C0F8EA
:101D1000E01040213C48006806F01AFD4BE09DF8B9
:101D200012109DF8110041EA002000B23549A1F8D7
:101D3000E40000213348C0F82C11802132480068AB
:101D400006F006FD37E09DF810009DF80F1040EA00
:101D5000012000B22749C8800020C1F8A00004215A
:101D60002948006806F0F4FC25E09DF810009DF875
:101D70000F1040EA012000B21F49C8800020C1F8BE
:101D8000A00008212048006806F0E2FC13E011E002
:101D90009DF812109DF8110041EA002000B2174989
:101DA0000880002088644FF480711748006806F0AE
:101DB000CFFC00E000BF67E7014648888880C888FC
:101DC0004880B1F90200B1F90420801A184A904203
:101DD00003DA0888401C00B20880B1F90200B1F9AA
:101DE0000420801A41F22C02904223E0B801002026
:101DF000DC050020600400200405002014040020FD
:101E000054020020E40200207800002084024342B3
:101E1000006400408C0000207400002008060020B0
:101E20005C000020A8050020840000208000002025
:101E3000D4EFFFFF03DD0888401E00B20880B1F92F
:101E40000200B1F90020C2EB4232104470472DED80
:101E5000028B84B04FF0000800BF00BF0027B946D6
:101E6000BA46002008EE100A08EE900A00BF08F0FB
:101E70006CFB01900221FE48006806F0C4FA0821BC
:101E8000FB48006806F0BFFA00BFFA4890ED050A6B
:101E9000B1EE400ABDEEC00A10EE100A00B2F649DB
:101EA000A1F85400F34890ED030ABDEEC00A10EE0D
:101EB000100A00B2F149A1F85400002202A9F0482A
:101EC000006807F08EF9EF4890ED000AB5EEC00A01
:101ED000F1EE10FA05D02021E548006806F093FAEB
:101EE00004E02021E248006806F032FCB8F1000F5F
:101EF0007DD1E148B0F90800DF49B1F90610401A78
:101F0000E149884207DADC48C088A0F5005000B2F9
:101F1000D949488016E0D848B0F90800D649B1F947
:101F20000610401A41F22C01884207DDD248C088D1
:101F300000F5005000B2D049488003E0CE48C08888
:101F4000CD494880CD48B0F90800CC49B1F9061018
:101F5000401ACD49884207DAC848C088A0F5005029
:101F600000B2C649488016E0C448B0F90800C34929
:101F7000B1F90610401A41F22C01884207DDBF4832
:101F8000C08800F5005000B2BC49488003E0BB485F
:101F9000C088BA494880B84909894FF4B47211FB26
:101FA00002F0C11700EBD1414913B34A51811146E8
:101FB00049884FF4B47211FB02F0C11700EBD14114
:101FC0004913AD4A9181AD4909894FF4B47211FBAF
:101FD00002F0C11700EBD1414913A84A51811146C3
:101FE00049884FF4B47211FB02F0C11700E038E0E9
:101FF00000EBD1414913A14A91819F4840899E49F4
:102000008989401A05B21046408911468989401ACB
:1020100006B2291E01DB0A4600E04A42052A1FDA01
:10202000301E01DB024600E04242052AF7DA4FF09B
:1020300001089FED960A964880ED020A9FED930AEB
:102040008C4880ED070A00208C4908800846C0882B
:1020500048800020888001218548006806F0D3F977
:1020600096E0844890ED070AB1EE400ABDEEC00A42
:1020700010EE100A00B2804988818048FFF79CFE6C
:102080004FF4B47100FB01F3D81703EBD0404013B9
:1020900000B27A49888100217548006806F058FB33
:1020A000044604F01000102834D107F0100028B9BD
:1020B0007148B0F90A907148B0F90AA004F0200004
:1020C00020281AD101206C4948816E4890ED000A01
:1020D000BDEEC00A10EE100A00B2888101206749E7
:1020E0004881684890ED010AB1EE400ABDEEC00A91
:1020F00010EE100A00B2888149E007F02000202885
:1021000045D15D4880895C4948815C4880895B494C
:1021100048813CE007F0100010280DD15648808916
:10212000A0EB090000B208EE100A54488089A0EB29
:102130000A0000B208EE900A9DED030AF8EEC80A04
:1021400030EE200ABDEEC00A10EE100A00B24A4975
:1021500048819DED020AF8EEE80A70EE200A474831
:10216000B0F9080000EE100AB8EEC00A30EE800A9E
:10217000DFED480A20EE200ADFED470A80EE201A44
:10218000BDEEC10A10EE100A00B23C494881274654
:10219000082101A807F02DFE77E62DED048B88B00D
:1021A000002403220021012006F002FC3B490860C4
:1021B00003220021012006F0FBFB3949086000BF23
:1021C0004FF0FF313548006806F0DCFD0321284858
:1021D000006806F0BDFA3348006807F03DFC0220B5
:1021E00031490870FEF71DFD00BF224802F084F956
:1021F000204801F0A1FD641C1E4890ED030A10EE7A
:10220000101A08460CF072F841EC190BB0EE490AAE
:10221000F0EE690A0BF07CF9B0EE408AF0EE608ACD
:102220009FED220B53EC102B51EC180B0BF066FEBC
:10223000DBD3104890ED050A10EE101A08460CF09A
:1022400055F841EC190BB0EE490AF0EE690A0BF0B3
:102250005FF9B0EE408AF0EE608A9FED160B53EC0A
:10226000102B51EC180B0BF049FEBED30A2C25E0C5
:1022700074000020A8050020600400200405002050
:10228000880000201C060020D4EFFFFF00000000A3
:10229000B80100200000B4430000004668000020A0
:1022A0006C0000204C000020210000209A99999990
:1022B0009999B93F7B14AE47E17A843F95DBFEF7ED
:1022C000F6FC0120FE490870811EFE48006806F0F9
:1022D00059FD0220FA490870FB48C088FA49088174
:1022E000FA48C088F9490881142103A809F0B2FC12
:1022F000F548B0F906000390F448B0F906000490E0
:10230000F348406A0590F248C06A0690F048806A37
:102310000790052203A9EF48FEF7FBFFFEF7A4FC98
:102320000020E7490870EC4804210023CA01CDE9E8
:102330000010EAA1EE4807F041FB41E7014639B33E
:10234000EC4AB2F90020642A0EDAEB4A1268521CF9
:10235000E94B1A601A461268282A05DD0122E74B6C
:102360001A700022E44B1A60E44A1278012A0FD155
:10237000E34A1268521CE24B1A60E2491A4612689C
:10238000142A05DD0022DD4B1A70DD4B1A60014670
:10239000D84A5180704710B50021DB48006806F02C
:1023A000D7F9044604F40070B0F5007F27D1D74870
:1023B000C07A012804D002280BD003281DD112E0D6
:1023C000D248B0F82700D72802DD0020FFF7B6FF7B
:1023D00014E0CE48B0F82700B0F5A87F02DB00205B
:1023E000FFF7ACFF0AE0C948B0F82700B0F5E47F7A
:1023F00002DB0020FFF7A2FF00E000BF00BF10BD1E
:1024000008B500BF08F0A1F8009000BF0021C04847
:10241000006806F09DF9044604B3012C15D0022C87
:102420000AD0032C22D17D208107886348634FF4B2
:102430008750FFF783FF1AE078204FF080418863D0
:1024400048630020FFF77AFF11E0642001078863EA
:10245000486341F2FC20FFF771FF08E064200107A8
:10246000886348630020FFF769FF00E000BF00BFFA
:10247000FFF791FF1421684607F0BBFCC6E71CB5C7
:1024800003220021012006F093FAA24908600322EA
:102490000021012006F08CFA9F49086000BF4FF030
:1024A000FF319C48006806F06DFC9C48006807F00E
:1024B000D3FA01209A490870FEF7B3FBC820C10681
:1024C000486388634FF0FF319348006806F05AFC78
:1024D000022093490870FEF7C7FBFA2004E04FF092
:1024E000804148638863401E6428F8DA00208C49E4
:1024F00008708A48032100234FF40072CDE90010D0
:1025000088A18B4807F05AFAC9E7002500BF4FF0B1
:10251000FF318848006806F035FC00208649886154
:1025200002217948006806F013F98448007883494D
:10253000497840EA01208049898B40F2FF72511AA4
:10254000084000B27C4908807C484078C0107B4934
:10255000897840EA4110C0F30A00774948807748FB
:10256000807880117549C97840EA810073490979FA
:1025700040EA8120C0F30A006F4988806F480079E3
:1025800040106E49497940EAC110C0F30A006A4917
:10259000C8806A484079001180080872674840790D
:1025A000C0F301104872654880796449C97940EAEE
:1025B000012000B2604948816048007A5F49497A49
:1025C00040EA012001B25C4881815C48807A5B4925
:1025D000C97A40EA012001B25748C1815748017BBE
:1025E000554801745548417B534841745348807B9A
:1025F0005249C97B40EA01214F48418290F90900C4
:1026000001285BD0022802D0032858D1D7E04A48DD
:10261000408A012804D141F28830494908801EE0EF
:102620004548408A022804D14EF678404449088043
:1026300015E04148408A042804D14EF684204049E0
:1026400088800CE03C48408A082804D141F27C5044
:102650003B49888003E0002039498880088036485B
:10266000408A402805D132203549C8803C20088165
:1026700007E03148408A802803D100203049C880D3
:1026800008812D48408A102805D110212D48006866
:1026900005F0B9FE08E02848408A202804D110211E
:1026A0002848006806F054F800212648006806F023
:1026B0004FF804462048007C012845E0CEE0E2E0E7
:1026C000210000206C000020600400200405002090
:1026D000A8050020000006084C00002067696D6214
:1026E000616C436F6E74726F6C7461736B00000089
:1026F0004F1E000814040020A4000020AC0000209D
:10270000A800002024FAFFFF7800002054020020D7
:1027100070000020600000206400002030000020D5
:102720002000002063616C697461736B000000001D
:102730000124000858000020DC050020C80100200A
:10274000080600207400002005D10121FE48006821
:1027500005F059FE04E00121FB48006805F0F8FF90
:102760000221F948006805F04EFE0421F748006890
:1027700005F049FE04F0100000BBF54890ED040A96
:10278000F448B0F90A0000EE900AF8EEE00A9FED76
:10279000F21A00EEC10AEE4880ED040A90ED030A39
:1027A000EC48B0F90C0000EE900AF8EEE00A9FED5C
:1027B000EB1A00EE810AE64880ED030A64E0E54882
:1027C0000088A0F5806000EB800101EBC00000B242
:1027D000DF498880DF484088A0F5806000EB8001F9
:1027E00001EBC00000B2DA4908800020C88004F084
:1027F000100058B908464188D6488088A0F5806006
:1028000000EB8000084400B2D1494880D148007AEA
:10281000012805D10321CC48006805F099FF17E095
:10282000CC48007A03280AD10221C748006805F085
:10283000EAFD0121C448006805F08AFF08E0C548A8
:10284000007A022804D10321BF48006805F0DBFDAF
:102850000421BE48006805F0D6FD15E00020BC4903
:102860008880088048800321B748006805F070FF21
:102870000421B648006805F06BFF0821B3480068E2
:1028800005F0C1FD00E000BF00BFB14890ED030AB4
:10289000B5EEC00AF1EE10FA00D10125012D1CD1D0
:1028A000AB4890ED030ADFEDAE0AB4EEE00AF1EEBC
:1028B00010FA04DD9FEDAA0A80ED030A0DE0A4489A
:1028C00090ED030ADFEDA70AB4EEE00AF1EE10FA8C
:1028D00003D29FEDA40A80ED030A022300229C4943
:1028E000A148006806F01EF90223002298490C3125
:1028F0009E48006806F016F99648B0F90000B0F559
:10290000B67F0FD19348B0F90600B0F5B67F09D174
:102910009748007830B900231A4619469548006850
:1029200006F000F98B48B0F9000040F2946188424B
:1029300010D18848B0F90600B0F5B67F0AD18C48AE
:102940000078012806D100231A4619468A480068F3
:1029500006F0E8F87F48B0F90000B0F5B67F10D176
:102960007C48B0F9040040F29461884209D1834860
:10297000007830B900231A4619468148006806F0ED
:10298000D1F87448B0F9000040F2946188427FF4B5
:10299000BEAD7048B0F90400B0F5B67FF7D1774806
:1029A00000780128F3D100231A46194675480068BB
:1029B00006F0B8F8ABE508B50027B846002400BF1C
:1029C00007F0C3FD0090B0EE081AF7EE000AB1EE72
:1029D0000C0A4FF47A73DA0004216B48FDF7D5FF37
:1029E000002515E005EB450101EB0511674A02EBF7
:1029F0008101081DB7EE001ADFED650AB0EE000A8E
:102A00004FF47A73DA000421FDF7BFFF681CC5B2EA
:102A1000042DE7DBB9EE041ADFED5E0A9FED5E0AD6
:102A20004FF47A739A0003215C48FDF7AEFF9FEDE7
:102A3000591AF7EE000A9FED5A0A4FF47A635A00CA
:102A4000032156484830FDF7A0FFB2EE041ADFED2F
:102A5000550A9FED550A4FF47A739A0003215348A3
:102A6000FDF793FFB1EE001AFEEE000A9FED500A4B
:102A70004FF4FA635A0003214C484830FDF785FFB4
:102A800000BF00213148006805F062FE064606F0EE
:102A9000080008282DD1201D04B2642143481038B5
:102AA0008164C0F890103D4810388164C0F89010DF
:102AB000C0F88C403D481038C0F88C40B4F57A6FAF
:102AC00017DB08212148006805F042FE3348103822
:102AD000C0F88C4035481038C0F88C404FF4FA717B
:102AE0008164C0F890102D4810388164C0F89010AF
:102AF00000242E481038B0F90C20B0F90A1010301C
:102B0000FDF7AAFEBDEEC00A10EE100A0FFA80F81B
:102B100026481038A0F85680B0F95420B0F9561065
:102B20005830FDF799FEBDEEC00A10EE100A00B253
:102B30002049488019481038B0F90C20B0F90A1023
:102B40001030FDF789FE37E070000020740000208F
:102B500008060020DC050020295C8F3D6666E63F04
:102B600000801F4400801FC48C00002088000020CB
:102B700020000020600000206400002021000020D0
:102B8000680000206C00002018040020E4020020EF
:102B9000CDCCCC3D00000000333343417004002015
:102BA0000000144217B7D1B83333E3C01405002036
:102BB000000036C294000020BDEEC00A10EE100ADC
:102BC00007B2D048A0F85670B0F95420B0F95610AA
:102BD0005830FDF741FEBDEEC00A10EE100A00B2FB
:102BE000C9490880C948B0F90020B0F90210001D99
:102BF000FDF732FEBDEEC00A10EE100A00B2C24967
:102C00008880002522E005EB450303EB0513DFF880
:102C100000C33CF9232005EB450303EB05130CEB44
:102C20008303B3F9021005EB450303EB05130CEB2B
:102C30008303181DFDF710FEBDEEC00A10EE100A4A
:102C400000B2B44921F81500681CC5B2042DDADBC6
:102C500006F00600062809D0002005E00021AA4A57
:102C600022F81010411CC8B20428F7DBA64A40F233
:102C7000FF11A948FEF7C6FAA64A4FF40071A6480C
:102C8000FEF7C0FA0621684607F0B3F8F9E688B007
:102C9000FDF79AFFFEF722F9FEF784F84FF4E130D2
:102CA00000F0FAFAFEF7A8FAFEF743FCFEF754FC30
:102CB00001F0B4F8142103A808F0CCFF052203A901
:102CC0009648FEF76FFB039800B28E49088104987E
:102CD00000B2934908819349059848620698C862F2
:102CE00007988862642007F0E8F8002400BF642099
:102CF00007F0E3F8601CC4B2282C22DB8A48B0F944
:102D00000000A0F580608849C8610024FDF766FFD7
:102D10008648052100234FF40072CDE90010AFF280
:102D20004461834806F04AFE82480621002380223F
:102D3000CDE9001080A1854806F040FE002006F095
:102D40008BFE322007F0B9F8D1E72DED028B82B06F
:102D500005F0A9FA00220121084605F029FE7C4968
:102D6000086000221421012005F022FE7949086044
:102D700000221421012005F01BFE77490860002283
:102D80000821012005F014FE7449086000220A2180
:102D9000012005F00DFE7249086003220021012088
:102DA00005F006FE6F49086003220021012005F0AE
:102DB000FFFD6D49086005F019FB6C49086005F0DE
:102DC00015FB6B49086005F011FB6A4908606A4809
:102DD000042100238022CDE9001068A16A4806F092
:102DE000EDFD6A480221002340F20342CDE90010C4
:102DF00067A16A4806F0E2FD6948032100234FF409
:102E00000072CDE9001067A16B4806F0D7FD6B4852
:102E1000042100238022CDE90010AFF2F861684858
:102E200006F0CCFD6748072100238022CDE9001081
:102E300065A1684806F0C2FD6748052100234FF4EC
:102E40009672CDE9001065A1684806F0B7FD6848A4
:102E5000052100234FF49672CDE9001065A1694861
:102E600006F0ACFD6848052100238022CDE9001062
:102E700066A16A4806F0A2FD6948032100234FF4C9
:102E80000072CDE9001067A16A4806F097FD6A4814
:102E9000032100234FF40072CDE9001067A16C48B4
:102EA00006F08CFD05F026FA00BF6A48D0F8131032
:102EB00008460BF01BFA41EC180B6648807C53EC7B
:102EC000182B009064A008F049FD684801780020A4
:102ED00000F0DAF84FF48041654801F04EFE4FF4FF
:102EE000FA7006F0EAFFE0E71CB562480221002311
:102EF000C822CDE9001060A1624806F05FFD07F02E
:102F0000D7FA1CBD600400209400002014040020A7
:102F1000E40200209C00002000640040000006083D
:102F200004050020A8050020DC0500204C0000203E
:102F30004F1E00084400002050494443616C6375F3
:102F40006C6174655461736B00000000B729000860
:102F50007C000020800000208400002088000020E9
:102F60008C000020580000205C0000207000002031
:102F70007400002078000020400000206273706917
:102F80006E69747461736B008F2C0008240000203C
:102F9000646275737461736B000000000B25000898
:102FA000300000206672694D6F746572436F6E74F5
:102FB000726F6C7461736B00012400082C00002098
:102FC0007F24000850000020696D7563616C69748E
:102FD00061736B009B2100083400002043616E3157
:102FE000526563656976657461736B00851C0008C2
:102FF0003800002043616E325265636569766574FE
:1030000061736B006D1C00083C000020494D555257
:103010006563656976657461736B0000571C000811
:1030200048000020434D436F6E74726F6C7461737F
:103030006B000000991B0008540000204F66666C6E
:10304000696E656465746563747461736B00000018
:10305000E91900085402002073706565643A25661A
:103060002020206672653A25640D0A009000002039
:10307000001402402800002073746172745F746150
:10308000736B00004B2D000870B504460D46FF2001
:1030900037490870084644708570FE20C8700020CB
:1030A0003449087012E000BF4021334802F0E6FACC
:1030B0000128F9D12E482F4A1278815C2E4802F05F
:1030C0002DFA2C480078401C2A49087029480078BD
:1030D0000428E8DB70BD002000BF10E02749095C30
:1030E000FF290BD1254AC11D515CFE2906D1411C87
:1030F0001144234A0B68136089889180401C0A2878
:10310000ECDB1F49B1F9001000EE101AB8EEC00A4E
:10311000B1EE400ADFED1B0A80EE201A1A4981ED5C
:10312000001A1749B1F9021000EE101AB8EEC00AE1
:10313000B1EE400ADFED130A80EE201A124981ED4C
:10314000011A0F498988104A1181114609890129FC
:1031500004D1114691ED010A81ED010A0A4909895C
:10316000022904D1084991ED010A81ED010A704755
:10317000B3000020B70000200048004030060020C7
:10318000AD0000200000C8421C06002010B507F06A
:1031900058FC012801D005F0C9F810BD70B50446EF
:1031A000042001F0BFFB3248047025464FF47A70CA
:1031B000454301202F4908804FF0E020006940F08E
:1031C00002004FF0E021086108464561006940F0C7
:1031D0000100086170BD70B5034600224FF0E02683
:1031E0007569234E367803FB06F44FF0E026B1698B
:1031F00010E04FF0E026B06988420BD0884202D23E
:103200000E1A324402E02E1A0E4432440146A24203
:1032100000D300E0EDE700BF70BD70B5044607F0D5
:1032200010FC012811D013480088844206DB1148A5
:10323000008894FBF0F5284606F03FFE0D48008814
:1032400094FBF0F100FB114084B24FF47A7104FB5F
:1032500001F0FFF7C0FF70BD30B50446002504E063
:103260004FF47A70FFF7B7FF6D1CA542F8D330BD5D
:10327000B8000020BA000020014600BF00207047BF
:10328000C2B2254B1A8000BF234A121F128802F0D7
:103290004002002AF8D0704710B586B004460121DC
:1032A000082001F084FE0121480401F0C7FE072236
:1032B00005211A4801F065FC07220621174801F094
:1032C00060FC02208DF814008DF8150000208DF8A8
:1032D000160001208DF817006020049004A90F4803
:1032E00001F0C4FB00940020ADF80400ADF8060026
:1032F000ADF80800ADF80C000C20ADF80A006946E6
:103300000548001F02F057F801210348001F02F092
:10331000DAF806B010BD000004440040000C024082
:10332000F0EE400AF6EE001A60EEA11AB0EE611A55
:10333000B0EE600A10EE100AFE49A1EB600000EE4C
:10334000100A21EE002AF7EE081A42EE401A61EE4A
:10335000801AB0EE610A704730B587B00546F64A6C
:103360000DF11A0006A9031FCDE90102009105AA7B
:10337000891F04A800F0B7FF00241DE0032C0BDA1E
:1033800004A830F9140000EE100AB8EEC00A05EBEC
:10339000840080ED000A0EE004A830F9140000EE6D
:1033A000100AB8EEC00ADFEDE50A80EE201A05EB40
:1033B000840080ED001A641C062CDFDB07B030BDF2
:1033C00000B52DED108B9BB0F0EE40AAB0EE60BAC8
:1033D000F0EE41BAB0EE61DAB0EE42CAF0EE62CA87
:1033E000B0EE43AAF0EE638AB0EE449AD44890ED72
:1033F000000AD0ED000A20EE200A8DED0B0A90EDB8
:10340000000AD048D0ED000A20EE200A8DED0A0A0D
:10341000CB4890ED000ACC48D0ED000A20EE200AFF
:10342000F0EE40EAC64890ED000AC848D0ED000A28
:1034300020EE200A8DED090AC24890ED000AD0ED79
:10344000000A20EE200A8DED080A90ED000ABE4821
:10345000D0ED000A20EE200A8DED070AB94890ED64
:10346000000ABA48D0ED000A20EE200AB0EE40FA79
:10347000B54890ED000AD0ED000A20EE200A8DED4F
:10348000060A90ED000AB148D0ED000A20EE200AAD
:103490008DED050A90ED000AD0ED000A20EE200A1D
:1034A0008DED040A01F0EDF8A949086008460068AE
:1034B000A8490968884210D2A64800684FF6FF71F3
:1034C000081AA3490968084400EE100AB8EE400A39
:1034D000DFEDA10AC0EE209A0CE09D4800689D49EE
:1034E0000968401A00EE100AB8EE400ADFED9A0AA9
:1034F000C0EE209A96480068964908606DEE0D0A65
:103500004CEE0C0A4CEEAC0AB0EE600AFFF708FF76
:10351000B0EE408A2DEE080AB0EE40DA2CEE080A32
:10352000B0EE40CA2CEE880AF0EE40CA6AEE0A0AF3
:1035300048EEA80A49EE090AB0EE600AFFF7F0FE6D
:10354000B0EE408A2AEE080AB0EE40AA28EE880AB9
:10355000F0EE408A29EE080AB0EE409AB0EE000A7A
:103560006AEE000A9DED060AB6EE001A31EE401A28
:103570009DED040A31EE400A20EE800AF0EE000ACA
:1035800068EEA01ADDED070A9DED091A70EEC10A7A
:1035900001EEA00AF0EE000A69EE200A3FEE2E1AB4
:1035A00000EE810A8DED1A0AB0EE000A2AEE001A2A
:1035B0009DED070ADDED090A30EE200A21EE000A32
:1035C000F0EE000A28EEA01ADDED080AF6EE001A69
:1035D00071EEE01ADDED040A71EEE00A01EE200A58
:1035E000F0EE000A69EE201ADDED050A9DED0A1ADB
:1035F00070EEC10A01EEA00A8DED190AB0EE000AC4
:103600002AEE000A7FEE6E0A20EE200AF0EE000A93
:1036100068EEA01ADDED050A9DED0A1A70EE810A2A
:1036200001EEA00AF0EE000A29EE201ADDED080AEC
:10363000F6EE001A71EEE01ADDED060A71EEE00A10
:10364000F0EE40DA41EE20DA9DED1A0A60EE000A53
:103650009DED190A40EE000A10EE901A08460AF095
:1036600045FECDE900019DED000B09F05BFF8DEDFE
:10367000020B9DED020B51EC100B0AF0AFF80FEEB0
:10368000900AB0EE6DEA3FEE6E0AF0EE000A20EE10
:10369000200A8DED180A9DED0A0ADDED050A30EECF
:1036A000200AF0EE000A20EE200A8DED170A9DEDAB
:1036B0000B0ADDED080A70EE600A9DED060A70EE59
:1036C000C00A9DED040A30EE800A8DED160AB0EEB8
:1036D000000A6FEE800A9DED060AB6EE001A31EE82
:1036E000401A9DED040A31EE400A20EE800AF0EE09
:1036F0004EDAF0EE000A6DEEA00A3FEE6E1A00EE12
:10370000810A8DED150AB0EE000A2FEE801A9DEDAC
:10371000070ADDED090A30EE600A21EE000AF0EE3C
:103720004EDAF0EE000A6DEEA01ADDED0A0A9DED0C
:10373000051A13E0DF59375FA80500203333034231
:10374000CC000020D0000020D4000020D8000020B1
:10375000E8000020E40000200024F44970EE810A13
:1037600001EEA00A8DED140AB0EE000A2FEE800AD9
:103770007EEE8F0A20EE200AF0EE4EDAF0EE000A1E
:103780002DEEA01ADDED080AF6EE001A71EEE01A31
:10379000DDED060A71EEE00A01EE200A8DED130A56
:1037A0009DED160A6CEE000A9DED170A4CEEC00A5C
:1037B0009DED130A28EE801A9DED140A09EE401AB9
:1037C00030EE810A8DED120A9DED180A6CEE800A2A
:1037D0009DED160A4DEE400A9DED150A29EE001AE0
:1037E0009DED130A0AEE401A30EE810A8DED110AA2
:1037F0009DED170A6DEE000A9DED180A4CEE400A89
:103800009DED140A2AEE001A9DED150A08EEC01A65
:1038100030EE810A8DED100A9DED120AB5EEC00A58
:10382000F1EE10FA61D09DED110AB5EEC00AF1EE8D
:1038300010FA5AD09DED100AB5EEC00AF1EE10FA5A
:1038400053D09DED120ADFEDFE0A60EE200AFD481E
:1038500090ED000A00EEA90A80ED000A9DED110A24
:10386000DFEDF70A60EE200AF74890ED000A00EE5F
:10387000A90A80ED000A9DED100ADFEDF10A60EE65
:10388000200AF24890ED000A00EEA90A80ED000A35
:103890009DED120AB0EE001AF0EE6A0A41EE000A3F
:1038A000E84890ED000A30EE800AF0EE40AA9DED67
:1038B000110AB0EE001AF0EE4B0A41EE000AE2489F
:1038C00090ED000A30EE800AB0EE40BA9DED100A8D
:1038D000B0EE001AF0EE6B0A41EE000ADB4890ED04
:1038E000000A30EE800AF0EE40BAD94890ED000AA6
:1038F000B1EE400A20EE2A0AD648D0ED000A00EECA
:10390000CB0AD54890ED001AF0EE400A41EE6B0A62
:10391000D24890ED000A00EEA90A8DED0F0A90ED55
:10392000000A20EE2A0ACB48D0ED000A00EEAB0ACE
:10393000C94890ED001AF0EE400A41EE4B0AC44827
:1039400090ED000A00EEA90A8DED0E0AC34890ED35
:10395000000A20EE0B0ABE48D0ED000A00EEEB0A8A
:10396000BD4890ED001AF0EE400A41EE2A0AB9482F
:1039700090ED000A00EEA90A8DED0D0AB74890ED12
:10398000000A20EE2B0AB248D0ED000A00EE8B0AA6
:10399000B04890ED001AF0EE400A41EE6A0AAE48D7
:1039A00090ED000A00EEA90A8DED0C0ADDED0F0A7C
:1039B00020EEA01ADDED0E0A00EEA01ADDED0D0AD4
:1039C00000EEA01ADDED0C0A00EEA01AB0EE410ADE
:1039D000FFF7A6FCB0EE408A9DED0F0A20EE080A24
:1039E0009E4880ED000A9DED0E0A20EE080A9848D8
:1039F00080ED000A9DED0D0A20EE080A954880ED45
:103A0000000A9DED0C0A20EE080A934880ED000A9A
:103A10001BB0BDEC108B00BD30B52DED0C8B87B00D
:103A200005460C469FED8E0A8DED020A9FED8C0A2D
:103A30008DED010A9FED8A0A8DED000A2046FFF701
:103A40008BFC94ED050ADFED870A20EE200ADFEDFE
:103A5000860A80EE201AB0EE418A94ED040ADFED6A
:103A6000810A20EE200ADFED800A80EE201AF0EEB7
:103A7000418A94ED030ADFED7B0A20EE200ADFED98
:103A80007A0A80EE201AB0EE419A94ED020AF0EE26
:103A9000402A94ED010AB0EE402A94ED000AF0EEBF
:103AA000401A9FED6F4ADFED6E3A9FED6D3AB0EE32
:103AB000481AF0EE680AB0EE490AFFF781FC674841
:103AC00090ED000A8DED030A614890ED000A8DED3E
:103AD000040A604890ED000A8DED050A5E4890EDFD
:103AE000000A8DED060A9DED050AF8EE000A20EEAB
:103AF000200ADDED050A20EE200ADDED060AB0EE13
:103B0000001A60EE810A9DED061A00EEC10AF7EE7A
:103B1000000A30EE200A10EE101A08460AF0E6FB02
:103B200041EC1C0B9DED040AF0EE000A20EE200A89
:103B3000DDED050A20EE200ADDED030AB0EE001AE5
:103B400060EE810A9DED061A00EE810A10EE101A51
:103B500008460AF0CBFB41EC1D0BB0EE4C1AF0EE20
:103B60006C1AB0EE4D0AF0EE6D0A09F0D9FBB0EE1A
:103B700040BAF0EE60BA51EC1B0B09F023FE41ECA9
:103B80001A0B9FED3A0B53EC102B0AF0B9F841ECED
:103B9000190B9FED380B53EC102B09F005FF41EC8E
:103BA000180B09F01BFE00EE100A85ED000A9DEDD2
:103BB000040AF8EE000A20EE200ADDED060A20EEE7
:103BC000200ADDED030AB0EE001A60EE810A9DEDD9
:103BD000051A00EE810A10EE101A08460AF086FB5C
:103BE00041EC1C0BB0EE4C0AF0EE6C0A09F07CF8CC
:103BF000B0EE40BAF0EE60BA51EC1B0B09F0E2FDFA
:103C000041EC1A0B9FED190B53EC102B0AF078F8CE
:103C100041EC190B9FED170B53EC102B09F0C4FE70
:103C200041EC180B09F0DAFD00EE100A85ED010AEF
:103C30009DED040AF8EE000A20EE200A1EE00000C6
:103C40000AD7233CC0000020C4000020C800002088
:103C5000D0000020D4000020D8000020CC0000209C
:103C600000000000DB0F494000003443000000006A
:103C70000080664000000060FB210940DDED040A81
:103C800020EE200ADDED050AB0EE001A60EE810A92
:103C90009DED051A00EEC10AF7EE000A30EE200A8B
:103CA00010EE101A08460AF021FB41EC1B0B9DEDAB
:103CB000050AF0EE000A20EE200ADDED060A20EEED
:103CC000200ADDED030AB0EE001A60EE810A9DEDD8
:103CD000041A00EE810A10EE101A08460AF006FBDC
:103CE00041EC1C0BB0EE4B1AF0EE6B1AB0EE4C0A26
:103CF000F0EE6C0A09F014FBB0EE40AAF0EE60AAF8
:103D00001FED260B53EC102B51EC1A0B09F0F8FFAA
:103D100041EC190B1FED290B53EC102B09F044FE5D
:103D200041EC180B09F05AFD00EE100A85ED020A6D
:103D300007B0BDEC0C8B30BD10B58CB00446002034
:103D400009900A900B902421684607F083FF69468A
:103D500009A8FFF761FE9DED030A84ED030A9DEDBE
:103D6000040A84ED040A9DED050A84ED050A9DED23
:103D70000A0A84ED060A9DED0B0A84ED080A94ED0B
:103D8000070AD4ED050A9FED041A00EE810A84EDBE
:103D9000070A0CB010BD00006F12833A1CB5012158
:103DA000022001F004F94FF48070009000208DF89B
:103DB000040003208DF8050002208DF807006946F5
:103DC0001B4800F053FE1CBD08B517208DF80000FD
:103DD00006208DF8010000208DF8020001208DF8EA
:103DE0000300684600F051FD08BD1CB501218803A1
:103DF00001F035F90821012001F03DFA4FF48070FF
:103E0000009000208DF804000C208DF805000120A2
:103E10008DF80600684603F081FF1CBD10B500F068
:103E200024FCFFF7BBFFFFF7CFFFFFF7DEFF10BD5E
:103E30000004024070B505460C460020F9490860B0
:103E400005F07F00F84908700846007800F0CBFCC8
:103E5000F5480470007800F0C6FC0120F349C1F871
:103E60009802002070BD10B504460020ED4908609E
:103E700044F08000EE4908700846007800F0B3FC7A
:103E800044F0800000F0AFFCEA4908700120E749E7
:103E9000C1F89802E748007810BD10B5044644F018
:103EA0008000E54908700846007800F09CFCE34972
:103EB00008700846007810BD70B504460D46002114
:103EC0002A20FFF7B7FF0220FFF7A7F92146292094
:103ED000FFF7B0FF0220FFF7A0F929466420FFF7A3
:103EE000A9FF0220FFF799F981212A20FFF7A2FFFD
:103EF0000A20FFF792F970BD70B5044621463220C2
:103F0000FFF798FF0A20FFF788F980213420FFF798
:103F100091FF0A20FFF781F93520FFF7A4FF05463E
:103F200000213420FFF786FF0A20FFF776F92846A4
:103F300070BD70B504460E46154621462820FFF791
:103F400079FF0220FFF769F90A212920FFF772FFA4
:103F50000220FFF762F901216420FFF76BFF0220C6
:103F6000FFF75BF944F080012520FFF763FF022093
:103F7000FFF753F931462620FFF75CFF0220FFF7D9
:103F80004CF903213420FFF755FF0220FFF745F9D4
:103F900003216720FFF74EFF0220FFF73EF9812142
:103FA0002A20FFF747FF0620FFF737F945F0800189
:103FB0002720FFF73FFF0720FFF72FF970BD10B54F
:103FC00030216A20FFF736FF0A20FFF726F90D217E
:103FD0002420FFF72FFF0A20FFF71FF90E212820CA
:103FE000FFF728FF0A20FFF718F98E213120FFF78D
:103FF00021FF0A20FFF711F901210B20FFF75CFFD9
:104000000020FFF779FF102801D0012010BD0A2001
:10401000FFF703F900210A20FFF74EFF0A20FFF700
:104020006BFF08B10220F1E70A20FFF7F6F8002144
:104030000B20FFF741FF0B20FFF75EFF08B10320C5
:10404000E4E70A20FFF7E9F824214120FFF734FFD5
:104050004120FFF751FF242801D00420D6E70A2091
:10406000FFF7DBF8C0214220FFF726FF4220FFF7D1
:1040700043FFC02801D00520C8E70A20FFF7CDF88C
:1040800000212A20FFF7D6FE0A20FFF7C6F80021FC
:104090003420FFF7CFFE0A20FFF7BFF806220321E6
:1040A0000E20FFF746FF6420FFF7B7F80020ADE7CA
:1040B00010B50446E006010E1C20FFF7BBFE10BD44
:1040C00010B50446E006010E1B20FFF7B3FE10BD3D
:1040D0002DE9F04304460D46DDE907670020002185
:1040E000012041E0DFF858C13CF81080A0F1010C3C
:1040F000DFF84C9129F81C8009F1160C3CF810905F
:10410000A0F1010CDFF8388108F1160828F81C909E
:1041100008F1160C3CF81090A0F1010C08F11608FB
:1041200028F81C9008F1160C3CF81090A0F1010C36
:1041300008F1160828F81C9008F1160C3CF81090AD
:10414000A0F1010C08F1160828F81C9008F1160CD3
:104150003CF81090A0F1010C08F1160828F81C900A
:1041600000F1010C0CF0FF000A28BBDBDFF8D0C027
:10417000ACF81240ACF82850ACF83E20ACF8543003
:10418000ACF86A60ACF88070002008E0DFF8B0C0DE
:104190003CF910C0614400F1010C0CF0FF000A284A
:1041A000F4DB4FF00A0C91FBFCFC0FFA8CFCDFF8FF
:1041B0009080A8F814C0002100200AE0DFF880C039
:1041C0000CF1160C3CF910C0614400F1010C0CF02C
:1041D000FF000A28F2DB4FF00A0C91FBFCFC0FFAFF
:1041E0008CF8DFF85CC0ACF82A80002100200AE0DF
:1041F000DFF84CC00CF12C0C3CF910C0614400F10C
:10420000010C0CF0FF000A28F2DB4FF00A0C91FBC6
:10421000FCFC0FFA8CF8DFF828C0ACF840800021D5
:10422000002018E09882424226010020008042428D
:1042300028010020270100202A0100202901002058
:104240006E060020DFF844C43CF910C0614400F160
:10425000010C0CF0FF000A28F4DB4FF00A0C91FB74
:10426000FCFC0FFA8CF8DFF824C4ACF1420CACF87B
:104270005680002100200AE0DFF810C40CF1160C73
:104280003CF910C0614400F1010C0CF0FF000A2859
:10429000F2DB4FF00A0C91FBFCFC0FFA8CF8DFF814
:1042A000ECC3ACF1420CACF86C80002100200AE0B9
:1042B000DFF8D8C30CF12C0C3CF910C0614400F1BC
:1042C000010C0CF0FF000A28F2DB4FF00A0C91FB06
:1042D000FCFC0FFA8CF8DFF8B4C3ACF1420CACF87C
:1042E0008280BDE8F0832DE9F04786B005460E4692
:1042F00017469846DDE90E9A109C0020E4490860B4
:10430000BB2000F070FA3B20FFF7C7FD8DF80800D6
:104310003C20FFF7C2FD8DF809009DF809009DF8CB
:10432000081040EA012000B2DA4908803D20FFF77A
:10433000B4FD8DF80A003E20FFF7AFFD8DF80B00AD
:104340009DF80B009DF80A1040EA012000B2D24906
:1043500008803F20FFF7A1FD8DF80C004020FFF7FB
:104360009CFD8DF80D009DF80D009DF80C1040EAA5
:10437000012000B2C94908804120FFF78EFD8DF869
:104380000E004220FFF789FD8DF80F009DF80F0009
:104390009DF80E1040EA012000B2C149C8804320B8
:1043A000FFF77BFD8DF810004420FFF776FD8DF8B8
:1043B00011009DF81100BB490989401A9DF81010A1
:1043C00040EA012000B2B84908804520FFF765FDAA
:1043D0008DF812004620FFF760FD8DF813009DF860
:1043E0001300B0494989401A9DF8121040EA012093
:1043F00000B2AE4908804720FFF74FFD8DF814004A
:104400004820FFF74AFD8DF815009DF81500A549D5
:104410008989401A9DF8141040EA012000B2A4498D
:1044200008800120A349C1F89802A148B0F9000012
:104430009E49B1F90010CDE900109B48B0F9003059
:104440009648B0F900209448B0F900109148B0F9AE
:104450000000FFF73DFE8D484238808A28808B4857
:104460004238408D308089484238B0F8400038806A
:1044700086484238B0F85600A18C401A00B2A8F81D
:10448000000082484238B0F86C00218D401A00B21A
:10449000A9F800007D484238B0F88200A18D401A8A
:1044A00000B2AAF8000006B0BDE8F08770B5DDE9FB
:1044B0000445764E423EB68A0680744E423E768D64
:1044C0000E80724E423EB6F8406016806F4E423EFD
:1044D000B6F85660103E36B21E806C4E423EB6F8BC
:1044E0006C60761D36B22680684E423EB6F8826019
:1044F000223636B22E8070BD2DE9F04F87B00446CB
:10450000002500260027A846A946AA46AB4600BFBC
:1045100011E06420FEF75FFE674A0DF11A0006A95C
:10452000031FCDE90102009105AA891F04A8FFF726
:10453000DAFE681CC5B2322DEBDB002523E0C82073
:10454000FEF749FE5C4A0DF11A0006A9031FCDE9EA
:104550000102009105AA891F04A8FFF7C4FEBDF956
:1045600010008144BDF912008244BDF91400834457
:10457000BDF916000644BDF918000744BDF91A003C
:104580008044681CC5B2642DD9DB642096FBF0F032
:104590006062642097FBF0F0A062642098FBF0F06A
:1045A000E06207B0BDE8F08F10B5024600210AE0D6
:1045B000424C34F91140944203D1404C34F911304B
:1045C00003E04C1CE1B20829F2DB00BFD41A20B290
:1045D00010BD10B586B000241422394901A807F097
:1045E000FFFA6420FEF719FE00F0F4F86420FEF7ED
:1045F00014FE7520FFF737FC702805D031A007F0B6
:10460000ADF9FF2006B010BD00240DE001AA02EBB9
:104610004402517801AA12F81400FFF70BFC0120A4
:10462000FEF7FBFD601CC4B20A2CEFDB0020E9E7BB
:104630000EB50121082000F001FD4FF0FF30019080
:104640005920ADF800000020ADF80800ADF80200D8
:1046500001211F4802F056F869461D4801F0E7FFA6
:1046600001211B4802F06CF80EBD10B502E0C82015
:10467000FEF7D3FDFFF7ADFFFF28F8D0FFF7D8FF17
:1046800010BD13482430006870470000B0060020B9
:1046900098824242F2000020F4000020F600002040
:1046A0003A06002054060020F8000020FA000020FE
:1046B000FC00002000804242A8050020FE000020EF
:1046C000E8E400086572726F722031410D0A000043
:1046D000000C00401CB50121202000F068FC4FF4C4
:1046E0006070009002208DF8040000208DF8060014
:1046F00003208DF8050000208DF8070069464E481C
:1047000000F0B4F94020009001208DF80400002052
:104710008DF8060003208DF8050000208DF80700B5
:104720006946454800F0A2F905220721424800F0F9
:1047300028FA05220921404800F023FA0522082121
:104740003D4800F01EFA1CBD00B585B001210805EA
:1047500000F085FC0121080500F0D6FC00214FF493
:10476000801000F0D1FC0020ADF800004FF4827002
:10477000ADF802000020ADF80400ADF80600ADF879
:1047800008004FF40070ADF80A003020ADF80C00BE
:104790000020ADF80E000A20ADF810006946274849
:1047A00002F036FD0121254802F02CFE05B000BDC7
:1047B00010B50446214800884FF6C77108401F49CC
:1047C0000880084600882043088001211B4802F029
:1047D00019FE10BD10B5FFF77DFFFFF7B5FF3020C4
:1047E000FFF7E6FF10BD70B505460126002422E064
:1047F000012E0FD10221114802F082FE50B1002497
:1048000001E0601CC4B2C82CFBDB29460B4802F057
:1048100075FE00267EB90121084802F071FE50B1F4
:10482000002401E0601CC4B2C82CFBDB034802F08A
:1048300062FEC0B270BDDBE70014024000500140D0
:104840000948804709480047FEE7FEE7FEE7FEE724
:10485000FEE7FEE7FEE7FEE7FEE7FEE70448054960
:10486000054A064B70470000B5060008AD01000878
:10487000C0340120C03A0120C0360120C0360120DA
:1048800032490143324A1160704770B5002100235C
:104890000F22C4781CB32E4C246804F4E064C4F5E1
:1048A000E064C4F30721C1F10404E3B20A4144788F
:1048B0009C40E1B28478144021430C07210E254C22
:1048C00005786155047804F01F050124AC40057893
:1048D0006D11AD0005F1E025C5F8004109E004784F
:1048E00004F01F050124AC401B4D0678761145F8F5
:1048F000264070BD194A0A400243154B1B1F1A601F
:10490000704739B1124A121D12680243104B1B1D29
:104910001A6006E00E4A121D126882430C4B1B1DE2
:104920001A607047042808D14FF0E021096941F06E
:1049300004014FF0E022116107E04FF0E021096926
:1049400021F004014FF0E022116170470000FA05E8
:104950000CED00E000E400E080E100E080FFFF1FDC
:1049600010B504469848844208D10121084600F059
:1049700087FB0021012000F083FB76E0934884420E
:1049800008D10121022000F07BFB0021022000F071
:1049900077FB6AE08E48844208D10121042000F0B0
:1049A0006FFB0021042000F06BFB5EE0894884422D
:1049B00008D10121082000F063FB0021082000F04D
:1049C0005FFB52E08448844208D10121102000F0AE
:1049D00057FB0021102000F053FB46E07F48844243
:1049E00008D10121202000F04BFB0021202000F005
:1049F00047FB3AE07A48844208D10121402000F088
:104A00003FFB0021402000F03BFB2EE07548844234
:104A100008D10121802000F033FB0021802000F02C
:104A20002FFB22E07048844208D10121801500F05C
:104A300027FB0021A01500F023FB16E06B48844201
:104A400008D10121401500F01BFB0021601500F08A
:104A500017FB0AE06648844207D10121001500F0E7
:104A60000FFB0021201500F00BFB10BDF0B50A462E
:104A700000210023002400BF3DE0012505FA01F3D9
:104A8000156805EA03049C4234D105684F000326EB
:104A9000BE40B543056015794E00B5400668354304
:104AA00005601579012D02D01579022D16D1856882
:104AB0004F000326BE40B543856055794E00B54092
:104AC000866835438560456801268E40B54345605C
:104AD000456896798E40B6B235434560C5684F004B
:104AE0000326BE40B543C560D5794E00B540C668C3
:104AF0003543C560491C1029BFD3F0BD4FF6FF7187
:104B000001600021017141718171C171704708B567
:104B10004FF480320092009A0A430092009AC261D8
:104B2000C161009AC261C2690092C269009208BD67
:104B30000246002013690B400BB1012000E0002069
:104B400070470146086980B27047024600205369E9
:104B50000B400BB1012000E000207047014648697E
:104B600080B2704701837047418370470AB1018367
:104B700000E0418370474161704742694A404261A9
:104B80007047F0B5002300244D07ED0E02FA05F33F
:104B9000CE1000F1200555F826504E07F70E0F26CF
:104BA000BE40B543CF1000F1200646F82750CE1086
:104BB00000F1200555F8265045EA0304CE1000F117
:104BC000200545F82640F0BD0000024000040240E8
:104BD00000080240000C0240001002400014024095
:104BE00000180240001C0240002002400024024045
:104BF00000280240F648006840F00100F4490860CF
:104C00000020F34908310860F1480068F149084084
:104C1000EF490860F048091D0860F048EC4984310C
:104C20000860ED481038091D0860E948006820F464
:104C30008020E74908600020E5490C310860E4491C
:104C40008C31086070470121E14A921C11701146B5
:104C50000870704710B501460022002300204A1159
:104C6000012A02D1DA4C236808E0022A03D1D84C89
:104C70007034236802E0D64C7434236801F01F02BC
:104C8000012494401C400CB1012000E0002010BD24
:104C900038B5002000900024002500BF3120FFF728
:104CA000D9FF05460098401C00900098B0F5A04F31
:104CB00001D0002DF2D03120FFF7CCFF08B1012444
:104CC00000E00024204638BD01460020C04A10689C
:104CD00020F0F80040EAC10010607047C049086049
:104CE00070470021BA4A703211701170012802D049
:104CF00004280AD104E00121B54A7032117005E0A0
:104D00000521B34A7032117000E000BF00BF704748
:104D1000B4490860704770B5049C41EA82150126C9
:104D2000C6EB530645EA0645054345EA0465A84E29
:104D3000361D356070BDAA490866704710B58301FD
:104D400043EA016343EA0273A14C8434236010BD3B
:104D5000A3498866704710B5830143EA016343EABB
:104D600002739B4C8834236010BD9D4908677047CF
:104D70009B49C864704702460020954B0833186869
:104D800020F0EC6042EA01031843914B08331860AD
:104D90007047024600208E4B0833186820F0784098
:104DA00042EA010318438A4B0833186070470146F2
:104DB0000020874A0832106820F003000843106082
:104DC000704783480830006800F00C0070470146C7
:104DD00000207F4A0832106820F0F000084310607D
:104DE0007047014600207A4A0832106820F4E050EB
:104DF00008431060704701460020754A0832106869
:104E000020F4604040EAC10010607047F0B5002116
:104E1000002200240225002602236D4F08373F6838
:104E200007F00C0121B1042905D0082937D105E08C
:104E30006D4F076036E06D4F076033E0644F3F1DF4
:104E40003F68C7F38056624F3F1D3F6807F03F033E
:104E50006EB1664FB7FBF3F7DFF874C10CF1040CC9
:104E6000DCF800C0CCF3881C07FB0CF40CE05E4FB0
:104E7000B7FBF3F7DFF858C10CF1040CDCF800C005
:104E8000CCF3881C07FB0CF4514F3F1D3F68C7F360
:104E900001477F1C7D00B4FBF5F7076002E0524F2D
:104EA000076000BF00BF4A4F08373F6807F0F001B6
:104EB00009094F4F7A5C0768D7404760444F08376D
:104EC0003F6807F4E051890A494F7A5C4768D74048
:104ED00087603F4F08373F6807F46041490B444FF4
:104EE0007A5C4768D740C760F0BD002100F440728B
:104EF000B2F5407F0AD1364A0832116821F4F81120
:104F00003C4A02401143324A08321160304A703242
:104F10001268C0F30B031A432D4B70331A607047AD
:104F200030494439086070472E494039086070475D
:104F300031490860704701460020254A8C321068CC
:104F400020F01F004A1E1043214A8C321060704727
:104F5000014600201E4A8C32106820F4F8504A1E88
:104F600040EA02201A4A8C32106070470146002045
:104F7000174A8C32106820F44010084310607047C4
:104F800001460020124A8C32106820F44000084389
:104F900010607047014600200D4A8C32106820F4E2
:104FA000403008431060704714490860704739B1B9
:104FB000074A303212680243054B30331A6006E06C
:104FC000034A303212688243014B30331A60704713
:104FD00000380240FFFFF6EA1030002400300020C5
:104FE00000004742800E47420024F400001BB70037
:104FF0002B010020FFFCFF0F5C014742E0114742FC
:1050000029B1934A12680243914B1A6004E0904A16
:10501000126882438E4B1A60704739B18C4A121D58
:10502000126802438A4B1B1D1A6006E0884A121D53
:1050300012688243864B1B1D1A60704739B1844A3F
:105040000C3212680243824B0C331A6006E0804A2D
:105050000C32126882437E4B0C331A60704739B1B0
:105060007B4A103212680243794B10331A6006E013
:10507000774A103212688243754B10331A607047BA
:1050800039B1734A243A12680243714B243B1A60C7
:1050900006E06F4A243A126882436D4B243B1A6043
:1050A000704739B16A4A203A12680243684B203B84
:1050B0001A6006E0664A203A12688243644B203B3D
:1050C0001A60704739B1624A1C3A12680243604B59
:1050D0001C3B1A6006E05E4A1C3A126882435C4B35
:1050E0001C3B1A60704739B1594A143A126802439E
:1050F000574B143B1A6006E0554A143A1268824333
:10510000534B143B1A60704739B1514A103A126838
:1051100002434F4B103B1A6006E04D4A103A1268AA
:1051200082434B4B103B1A60704739B1484A1C32DE
:1051300012680243464B1C331A6006E0444A1C3294
:1051400012688243424B1C331A60704739B1404A9F
:105150002032126802433E4B20331A6006E03C4A7C
:105160002032126882433A4B20331A60704739B1BB
:10517000374A243212680243354B24331A6006E062
:10518000334A243212688243314B24331A60704709
:1051900039B12F4A2C32126802432D4B2C331A603E
:1051A00006E02B4A2C3212688243294B2C331A60BA
:1051B000704739B1264A303212680243244B3033EB
:1051C0001A6006E0224A303212688243204B3033A4
:1051D0001A607047012808D11D493C31096841F027
:1051E00008011B4A3C32116007E019493C3109684B
:1051F00021F00801164A3C321160704739B1144A57
:10520000273A12780243124B273B1A7006E0104AE5
:10521000273A127882430E4B273B1A7070470C488E
:105220004030006840F080700949403108607047A4
:1052300001460020064A283A12680A400AB10120B5
:1052400000E00020704702492639087070470000CE
:105250003438024010B501218803FFF755FF0021C3
:105260004FF48040FFF750FF10BD1C4908607047A5
:105270001B490862704730B500228B071C0F0F23B3
:1052800003FA04F2154B08338C1053F8243093437F
:10529000124C08348D1044F8253023468C1053F8F6
:1052A00024308C07240F00FA04F423430B4C0834F9
:1052B0008D1044F8253030BD0949DC310860704755
:1052C000084908607047002004492031096801F44A
:1052D000807109B1012000E00020704700380140D2
:1052E000000027420004274210B50446FA488442D1
:1052F00008D101211020FFF707FF00211020FFF740
:1053000003FF57E0F548844209D101214804FFF723
:10531000EAFE00214FF40030FFF7E5FE4AE0F048D6
:10532000844209D101218804FFF7DDFE00214FF4FA
:105330008020FFF7D8FE3DE0EA48844209D10121F0
:10534000C804FFF7D0FE00214FF40020FFF7CBFE8A
:1053500030E0E548844209D101210805FFF7C3FE8A
:1053600000214FF48010FFF7BEFE23E0DF488442A7
:1053700008D101212020FFF7C7FE00212020FFF7E0
:10538000C3FE17E0DA48844209D101218807FFF7FC
:10539000AAFE00214FF08040FFF7A5FE0AE0D548A5
:1053A000844207D101214005FFF79DFE00216005E1
:1053B000FFF799FE10BD2DE9FF4705460E46002474
:1053C000A14600BFA046B08900B100BF2C8A24F4DA
:1053D0004054F08804432C82AC8941F20C60844331
:1053E000B08831890843718908430443AC81AC8A91
:1053F00024F44074B0890443AC826846FFF706FD8C
:10540000B548854202D0B948854202D1DDF80C90FA
:1054100001E0DDF80890A88900F4004040B109EBF4
:10542000C90000EB091031684900B0FBF1F707E053
:1054300009EBC90000EB091031688900B0FBF1F7F6
:105440006420B7FBF0F004012009642101FB10780F
:10545000A88900F4004040B1322000EBC800B0FB46
:10546000F1F000F00700044308E0322000EB0810E0
:105470006421B0FBF1F000F00F0004432C81BDE883
:10548000FF874FF41651016000218180C1800181A6
:105490000C21418100218181704710B50246002016
:1054A000108A20F470600B884C8823438C88234337
:1054B000CC8823431843108210BD00210180418015
:1054C0008180C180704721B1828942F4005282817B
:1054D00004E082894DF6FF731A4082817047028B87
:1054E00002F47F420283028B0A430283704721B198
:1054F000828942F40042828103E08289C2F30E0273
:105500008281704721B1828A42F40062828204E083
:10551000828A4FF2FF731A4082827047C1F30802F9
:105520008280704701468888C0F308007047028A6D
:105530004FF6F0731A400282028A0A4302827047D1
:1055400021B1828942F00202828104E082894FF611
:10555000FD731A408281704782894FF2FF731A40AF
:10556000828182890A4382817047028A4FF6DF7303
:105570001A400282028A0A430282704721B1028ADB
:1055800042F48042028204E0028A4BF6FF731A4022
:1055900002827047818941F001018181704721B108
:1055A000828A42F00802828204E0828A4FF6F77310
:1055B0001A4082827047028BD2B20283028B42EA87
:1055C00001220283704721B1828A42F02002828246
:1055D00004E0828A4FF6DF731A408282704721B15D
:1055E000828A42F01002828204E0828A4FF6EF73D0
:1055F0001A4082827047828A4FF6FB731A40828279
:10560000828A0A438282704721B1828A42F0020272
:10561000828204E0828A4FF6FD731A4082827047CC
:105620001AB1838A0B43838202E0838A8B4383828D
:105630007047F0B50346002400260025002040F600
:105640006A17B94200D100BF1846C1F3421401F0F5
:105650001F06012707FA06F5012C01D10C3004E0E2
:10566000022C01D1103000E014301AB107682F432A
:10567000076002E00768AF430760F0BD0246002004
:10568000B1F5007F00D100BF13880B400BB10120A2
:1056900000E00020704701F40072B2F5007F00D1F5
:1056A00000BFCA430280704770B502460024002341
:1056B0000025002040F66A16B14200D100BFC1F3B8
:1056C000421501F01F03012606FA03F3012D13D141
:1056D0009689334017E0000000100140004400406C
:1056E00000480040004C00400050004000140140C1
:1056F00000780040007C0040022D02D1168A334021
:1057000001E0968A33400C12012606FA04F416884A
:10571000344013B10CB1012000E0002070BD10B581
:105720000022002340F66A14A14200D100BF0A12F1
:1057300001249440A3B2DC43048010BD10B504469C
:10574000FE48844209D101214806FFF7CCFC002124
:105750004FF00070FFF7C7FC08E001218806FFF753
:10576000C2FC00214FF08060FFF7BDFC10BD30B5DA
:10577000024600200023146824F002041460146818
:1057800044F00104146000E05B1C546804F0010460
:105790001CB94FF6FF74A342F6D1546804F001041B
:1057A0000CB900206CE08C79012C04D1146844F011
:1057B0008004146003E0146824F080041460CC7941
:1057C000012C04D1146844F04004146003E0146810
:1057D00024F0400414600C7A012C04D1146844F0C5
:1057E0002004146003E0146824F0200414604C7A50
:1057F000012C04D1146844F01004146003E0146810
:1058000024F0100414608C7A012C04D1146844F044
:105810000804146003E0146824F008041460CC7ACF
:10582000012C04D1146844F00404146003E01468EB
:1058300024F0040414608C78A407CD7844EA05644D
:105840000D7944EA05444D7944EA05540D886D1EEE
:105850002C43D461146824F001041460002300E098
:105860005B1C546804F001041CB14FF6FF74A342A2
:10587000F6D1546804F001040CB1002000E00120CE
:1058800030BD10B50021837A012202FA03F1AC4A3F
:10589000126842F00102AA4B1A60A94A1C3212682F
:1058A0008A43A74B1C331A60027BCAB9A44A0C3244
:1058B00012688A43A24B0C331A604288C38842EABA
:1058C00003439F4A4032847A42F834300288838806
:1058D00042EA03439A4A4032847A02EBC40253609C
:1058E000027B012A19D1964A0C3212680A43944B62
:1058F0000C331A604288038842EA0343904A4032DC
:10590000847A42F83430C288838842EA03438C4A5E
:105910004032847A02EBC4025360C27A3AB9884AB0
:10592000121D12688A43864B1B1D1A6006E0844ACA
:10593000121D12680A43824B1B1D1A60028932B97C
:105940007F4A143212688A437D4B14331A600289ED
:10595000012A06D17A4A143212680A43784B14336A
:105960001A60427B012A06D1754A1C3212680A432A
:10597000734B1C331A60724A126822F00102704B9A
:105980001A6010BD00218171C17101724172817272
:10599000C1728170C1700321017102214171012125
:1059A000018070476649096841F00101644A11604D
:1059B0001146096843F60E729143614A116011461F
:1059C000096841EA002111601146096821F00101CE
:1059D0001160704721B1026842F48032026003E036
:1059E000026822F4803202607047E1B1026842F03E
:1059F000800202604FF4C272125842F480734FF476
:105A0000C27213504FF4CA72125842F480734FF4AA
:105A1000CA7213504FF4D272125842F480734FF48A
:105A2000D27213501BE0026822F0800202604FF431
:105A3000C272125822F480734FF4C27213504FF4A2
:105A4000CA72125822F480734FF4CA7213504FF482
:105A5000D272125822F480734FF4D27213507047EE
:105A600010B502460020936803F08063B3F1806FA5
:105A700000D110E0936803F00063B3F1006F01D12F
:105A8000012008E0936803F08053B3F1805F01D1F7
:105A9000022000E00420042879D002F5C07303EB53
:105AA00000131B6803F0010402F5C07303EB00133D
:105AB0001C600B7A7BB94B7A0C8843EA445302F59D
:105AC000C07404EB00142468234302F5C07404EB93
:105AD0000014236010E00B7A4C6843EAC4034C7A4C
