:020000040800F2
:10000000C83A0120314400086D0300086F0300085E
:1000100073030008770300087B030008000000005A
:10002000000000000000000000000000990200082D
:100030007F03000800000000F50200087D2D000885
:100040004B4400084B4400084B4400084B44000854
:100050004B4400084B4400084B4400084B44000844
:10006000810300084B4400084B4400084B4400083F
:10007000410500084B4400084B4400084B4400086D
:100080004B4400084B4400084B4400080D05000891
:10009000090400084B4400084B440008A30300086F
:1000A0004B4400084B4400084B4400084B440008F4
:1000B000230500084B440008550D00084B44000878
:1000C0004B4400084B4400084B4400084B440008D4
:1000D0004B4400084B4400084B4400084B440008C4
:1000E0004B4400084B4400084B4400084B440008B4
:1000F0004B4400084B4400084B4400084B440008A4
:100100004B4400084B4400084B4400084B44000893
:100110004B4400084B4400084B4400084B44000883
:100120004B4400084B4400084B4400084B44000873
:100130004B4400084B4400084B440008F7040008F7
:10014000570400084B4400084B4400084B44000887
:10015000C30300084B4400084B440008E71800089C
:100160004B4400084B4400084B4400084B44000833
:100170004B4400084B4400084B4400084B44000823
:100180004B4400084B4400084B4400084B44000813
:100190004B4400084B4400084B4400084B44000803
:1001A00000000000000000004B44000800F002F8CE
:1001B00000F062F80AA090E8000C82448344AAF19F
:1001C0000107DA4501D100F057F8AFF2090EBAE89D
:1001D0000F0013F0010F18BFFB1A43F0010318477B
:1001E00094E00000B4E000000A4410F8014B14F061
:1001F0000F0508BF10F8015B240908BF10F8014B78
:100200006D1E05D010F8013B6D1E01F8013BF9D1C0
:10021000641E03D0641E01F8015BFBD19142E4D35C
:10022000704700000023002400250026103A28BF54
:1002300078C1FBD8520728BF30C148BF0B60704758
:1002400066290DF0C68664290BF0FE8175290BF036
:10025000FB8163290BF0B985002070471FB50DF0B5
:10026000AEFE0BF0F3FD0400002000210DF08CF831
:10027000E0601FBD10B510BD0BF0ECFE1146FFF79E
:10028000EDFF00F068F80BF00AFF03B4FFF7F2FF90
:1002900003BC02F0E9FD00002C4B19680868B0E8C7
:1002A000F04F80F30988BFF36F8F4FF0000080F3A9
:1002B000118870470000000008480068006880F35B
:1002C00008884FF0000080F3148862B661B6BFF36F
:1002D0004F8FBFF36F8F00DF00BF00BF08ED00E05E
:1002E000DFF80C00016841F470010160704700BF45
:1002F00088ED00E0EFF30980BFF36F8F134B1A68AE
:100300001EF0100F08BF20ED108A20E9F04F10609A
:1003100009B44FF0500080F31188BFF34F8FBFF343
:100320006F8F09F0FBFC4FF0000080F3118809BCCF
:1003300019680868B0E8F04F1EF0100F08BFB0EC65
:10034000108A80F30988BFF36F8F7047680100201F
:10035000EFF3058070474FF4407004F089F8B42043
:1003600002F014FD02F0ABFB00BFFEE7704700BFD8
:10037000FEE700BFFEE700BFFEE700BFFEE77047F5
:1003800010B5042007F028FB38B17648006808B99A
:10039000012000E0002073490860042007F027FBDB
:1003A00010BD08B54FF4807007F016FB20B1694608
:1003B0006D48006808F088FC4FF4807007F017FB68
:1003C00008BD08B569496A4805F0E1FD012816D164
:1003D0006649674805F0F7FD6449654805F04EFE3B
:1003E00069466448006808F06FFC009838B14FF027
:1003F000805061490860BFF34F8FBFF36F8F5F4933
:100400005B4805F0E0FD08BD00B587B002215C48FF
:1004100005F096FB58B101AA0021594805F00DFAE4
:10042000022306AA01A95748006808F0D1FB02215F
:10043000534805F020FC5449514805F05EFB0698EE
:1004400038B14FF080504C490860BFF34F8FBFF375
:100450006F8F07B000BD00B52DED088B85B0022170
:100460004A4805F06DFBE8B30221484805F003FC5B
:100470004549464805F041FB6A460021434805F0DE
:10048000DCF90098A0F2015068BB4148DDF80B1080
:1004900001609DF80F1001710146B1F902000DF0E5
:1004A000D3F941EC1B0B9FED3B0B53EC102B0DF0E4
:1004B0001FFA41EC190B364890ED020A10EE101AA3
:1004C00008460DF00BFD41EC1A0B53EC192B0DF007
:1004D0001BFC41EC180B0CF079FF2D4988600020C3
:1004E000C86001E003E000E000BF00BF00BF05B04E
:1004F000BDEC088B00BD10B50121244805F020FBA0
:1005000018B10121214805F0B6FB10BD10B501213D
:100510001B4805F015FB18B10121194805F0ABFB8C
:1005200010BD10B50121880706F031FB38B101215B
:10053000880706F03DFB0121880706F025FB10BD6A
:1005400010B51649164805F022FD012809D11349B6
:10055000134805F038FD1149114805F08FFD02F0F0
:10056000B2FB10BDAC0242426400002000880020B3
:10057000886402406000002004ED00E000080020D4
:10058000006400408800002008000032006800403D
:10059000C0010020FCA9F1D24D62503F008800103C
:1005A000286002400CB5002001900090834800684C
:1005B00040F480308149086000BF8048006800F442
:1005C000003000900198401C0190009818B90198E3
:1005D000B0F5A04FF1D17948006800F4003010B1B7
:1005E0000120009001E0002000900098012860D1D7
:1005F00072484030006840F08050704940310860D7
:100600006F48006840F440406D4908606B4808300E
:1006100000686A49083108600846006840F40040F4
:1006200008600846006840F4A05008606548091F4B
:100630000860081F006840F08070091F086000BF54
:100640005E48006800F000700028F9D05C4800683F
:1006500040F480305A49086000BF5948406800F4AF
:1006600080300028F9D05648006840F400305449E2
:10067000086000BF5248406800F400300028F9D0FC
:1006800040F20570504908604C480830006820F07E
:1006900003004A49083108600846006840F002003B
:1006A000086000BF45480830006800F00C000828CA
:1006B000F8D10CBD10B54548006840F470004349BE
:1006C00008603E48006840F001003C490860002096
:1006D0003A4908310860394800683D4908403749BF
:1006E00008603C48091D0860081F006820F480204D
:1006F000091F0860002031490C310860FFF752FFE4
:100700004FF0006031498039086010BD70B500209D
:100710000022022300240221284D08352D6805F00F
:100720000C0020B1042806D0082834D107E02A4D57
:100730002A4E356033E02A4D284E35602FE01F4D9C
:100740002D1D2D68C5F380541C4D2D1D2D6805F001
:100750003F0154B1224DB5FBF1F5184E361D3668F8
:10076000C6F3881605FB06F209E01B4DB5FBF1F553
:10077000124E361D3668C6F3881605FB06F20F4D7D
:100780002D1D2D68C5F301456D1C6B00B2FBF3F503
:10079000124E356003E0104D104E356000BF00BFB3
:1007A000064D08352D68C5F303150E4E705D0B4DD3
:1007B0002D68C540094E356070BD0000003802400C
:1007C000007000400C5A4007003C024088ED00E0F9
:1007D000FFFFF6FE103000240024F400000000208B
:1007E000001BB70004000020D0ED000AF4EEC00AA0
:1007F000F1EE10FA01DD80ED000AD0ED000AB1EE55
:10080000401AF4EEC10AF1EE10FA03D2F1EE400AFA
:10081000C0ED000A704783634263016380ED000A04
:10082000C0ED010A80ED021A704780ED000AC0EDAC
:10083000010A80ED021ADFED6B1AC0ED061ADFED3A
:10084000691AC0ED071ADFED671AC0ED081ADFED6F
:10085000651AC0ED091A704700B50346881A00EE04
:10086000100AB8EEC00A83ED050A186B03283ED1C2
:1008700093ED000AD3ED050A20EE200A83ED060A67
:1008800093ED070AD3ED010A93ED051A00EE810AF4
:1008900083ED070A93ED050AD3ED040A30EE600AF2
:1008A000D3ED020A20EE200A83ED080AD3ED0E0AEA
:1008B000F8EE600AB0EE600A03F11C00FFF794FF47
:1008C00093ED060AD3ED070A30EE200AD3ED080AAD
:1008D00030EE200A83ED090AD3ED0D0AF8EE600A26
:1008E000B0EE600A03F12400FFF77EFF42E0186BD0
:1008F00004283FD193ED050AD3ED040A30EE600AD7
:10090000D3ED000A20EE200A83ED060A93ED010ADA
:10091000D3ED050A20EE200A83ED070A93ED050AC0
:10092000D3ED040AB0EE001A01EE600AD3ED030A1B
:1009300030EE200AD3ED020A20EE200A83ED080AE9
:1009400093ED060AD3ED070A30EE200AD3ED080A2C
:1009500030EE200AD3ED090A30EE200A83ED090AB1
:10096000D3ED0D0AF8EE600AB0EE600A03F1240040
:10097000FFF73AFF93ED040A83ED030A93ED050AAE
:1009800083ED040A93ED090A00BD2DE9F0412DED38
:10099000048B04460D4616461F46B0EE408AF0EE24
:1009A000608AB0EE419A1048E06310482064B0EECF
:1009B000491AF0EE680AB0EE480A3B46324629462C
:1009C0002046D4F83CC0E047B0EE491AF0EE680A81
:1009D000B0EE480A2046216C8847BDEC048BBDE888
:1009E000F081000000000000170800082B08000834
:1009F0001CB50121702004F0D2F84FF40060009083
:100A000001208DF8040000208DF8060003208DF8E9
:100A1000050001208DF807006946DA4803F01EFE44
:100A20004FF4804000906946D74803F017FE1E201F
:100A300000906946D54803F011FE4FF4F070009025
:100A40006946D24803F00AFE4FF48041CE4803F0D5
:100A500081FE4FF40061CB4803F07CFE1E21CB48A1
:100A600003F078FE4FF4F071C84803F073FE1CBD2C
:100A700000B58BB00121402004F0D8F8012180207E
:100A800004F08DF809220621C14803F072FE4020CF
:100A9000099002208DF8280003208DF829000020FD
:100AA0008DF82A0001208DF82B0009A9B84803F021
:100AB000D5FD5920ADF818000020ADF81A0040F619
:100AC000E66007900020ADF820008DF8220006A90E
:100AD000B04805F0A4FB6020ADF804000120ADF89B
:100AE00006000420ADF8080000200390ADF81000C7
:100AF0000820ADF812004001ADF814000020ADF858
:100B0000160001A9A34805F01FFC0121A14805F02A
:100B10000FFC01219F4805F0FCFF0BB000BD00B5A4
:100B200085B00121022004F03AF80121880304F085
:100B30008EF80420039000208DF8100003208DF81B
:100B4000110001208DF8130003A9934803F086FDDE
:100B50000221012004F087F90420009000208DF884
:100B600004000C208DF8050001208DF80600684671
:100B700006F0CCFE08208DF8080006208DF809004C
:100B800000208DF80A0001208DF80B0002A803F068
:100B900074FC05B000BD1CB50121402003F0FFFF2F
:100BA0004FF40050009001208DF8040000208DF8D3
:100BB000060003208DF8050001208DF80700694626
:100BC000724803F04BFD1CBD10B5FFF711FFFFF796
:100BD0004FFFFFF7A4FFFFF7DEFF10BD10B540F693
:100BE000B8306C493431086040F6E66069492C3110
:100BF0000860962008F059FF40F6495065492C31AD
:100C00000860962008F051FF40F6D63061492C313B
:100C10000860962008F049FF00205E4934310860E2
:100C200010BD10B540F6B8305A493431086040F66E
:100C3000D63058492C310860962008F036FF40F62F
:100C4000495054492C310860962008F02EFF40F698
:100C5000E66050492C310860962008F026FF0020FD
:100C60004C493431086010BD10B540F6B8304949E0
:100C70003431086040F6E66046492C310860962021
:100C800008F013FF40F6495042492C310860962085
:100C900008F00BFF40F6D6303E492C310860962014
:100CA00008F003FF00203B493431086010BD10B547
:100CB00040F6B83037493431086040F6E6603549CF
:100CC0002C310860962008F0F0FE40F6E6603149CD
:100CD0002C310860962008F0E8FE40F649502D4976
:100CE0002C310860962008F0E0FE002029493431BC
:100CF000086010BD1FB50121042003F097FF3120CB
:100D000002905920ADF804000020ADF80C00ADF8B9
:100D100006000121214805F0EDFA01A91F4805F060
:100D20007EFA01211D4805F003FB012211461B48F4
:100D300005F016FF1E208DF8000004208DF801003C
:100D400000208DF8020001208DF80300684603F0B2
:100D500094FB1FBD10B50121104805F018FF0128B4
:100D600004D10F480068401C0D49086001210B4860
:100D700005F01EFF10BD10B5002009490860FFF7FF
:100D8000B9FF10BD001002400014024000180240DC
:100D9000001C02400018004000040240000800400F
:100DA0001400002000B597B00121022003F0F7FEE7
:100DB0000121102003F04BFF0121880503F0EFFE15
:100DC0008020159002208DF8580000208DF85A00E0
:100DD00003208DF8590000208DF85B0015A93A48D2
:100DE00003F03CFC07221146374803F0C2FC3748A9
:100DF00004F072F8364811900020ADF84800ADF8C4
:100E00004A004FF48060ADF84C000420ADF84E006D
:100E10000020ADF8500011A92C4804F0C4F80121BD
:100E20002A4804F048F901224021284804F0F0F94A
:100E300044208DF8400006208DF8410000208DF8F8
:100E4000420001208DF8430010A803F016FB00219A
:100E5000204805F03FF800BF1E48006800F0010080
:100E60000028F9D11B4804F059FF4FF000600190B1
:100E70001648001D0290184803900020049012208C
:100E80000590002006904FF48060079000200890A5
:100E900009904FF480700A904FF440300B9000207E
:100EA0000C900D900E900F9001A90A4804F0D8FF05
:100EB00001221021074805F09AF80121054805F0A4
:100EC00009F817B000BD0000000402400010014006
:100ED000A086010088640240D001002000B58BB0DC
:100EE0000121084603F0A2FE0121084603F057FE47
:100EF00001220021214803F03CFC0120099002203E
:100F00008DF8280003208DF8290000208DF82A0094
:100F100001208DF82B0009A9184803F09FFB40F22F
:100F20008330ADF818000020ADF81A0040F2CF7001
:100F300007900020ADF8200006A94FF0804005F092
:100F40006EF96020ADF804000120ADF80600002025
:100F5000ADF8100001A94FF0804005F0F5F9082127
:100F6000C80605F07EFB0121880705F0C3F90121C1
:100F7000880705F0DDF90BB000BD0000000002405D
:100F800000B58BB00121480603F050FE0121082076
:100F900003F005FE0320099002208DF828000320AD
:100FA0008DF8290009A9A34803F058FB0922002164
:100FB000A04803F0DEFB092201219E4803F0D9FB83
:100FC00014208DF8200005208DF8210000208DF8D8
:100FD000220001208DF8230008A803F04EFA132008
:100FE0008DF8200005208DF8210000208DF82200CA
:100FF00001208DF8230008A803F03FFA8E4804F082
:1010000095F905A804F0B6FA00208DF81A008DF8BD
:101010001B008DF81C008DF81D008DF81E000120AE
:101020008DF81F0000208DF816008DF817000520A0
:101030008DF8180007208DF819000320ADF8140072
:1010400005A97D4804F08BF900208DF80E008DF87D
:101050000F0001208DF810000020ADF80400ADF85D
:101060000600ADF80800ADF80A00ADF80C0001204C
:101070008DF8110001A804F0FCF9012202216E484C
:1010800004F0F6FC0BB000BD00B58BB001214806A2
:1010900003F0CCFD0121880603F0C8FD01210220E8
:1010A00003F07DFD4FF44050099002208DF8280098
:1010B0008DF8290009A9614803F0D0FA09220C2112
:1010C0005E4803F056FB09220D215C4803F051FBFA
:1010D00040208DF8200004208DF8210000208DF89C
:1010E000220001208DF8230008A803F0C6F93F2054
:1010F0008DF8200006208DF8210000208DF82200B8
:1011000001208DF8230008A803F0B7F94C4804F03B
:101110000DF905A804F02EFA00208DF81A008DF8BC
:101120001B008DF81C008DF81D008DF81E0001209D
:101130008DF81F0000208DF816008DF8170005208F
:101140008DF8180007208DF819000320ADF8140061
:1011500005A93B4804F003F90E208DF80E0000208D
:101160008DF80F0001208DF810000020ADF804006C
:10117000ADF80600ADF80800ADF80A00ADF80C00B7
:1011800001208DF8110001A804F073F90122022159
:101190002B4804F06DFC01221146294804F068FC3C
:1011A0000BB000BD10B5FFF7EBFEFFF76DFF10BDF4
:1011B0002DE9F04186B006460D4614464FF0000872
:1011C000019500208DF80C008DF80D0008208DF899
:1011D0000E002088000A8DF80F0021788DF810107D
:1011E0006088010A8DF81110A1788DF81210A0887E
:1011F000010A8DF8131021798DF81410E088010A86
:101200008DF81510A1798DF8161001A9304604F05B
:101210001FFA074600BF3946304604F0B1FA30B92C
:10122000404608F101084FF6FF718842F3DB06B033
:10123000BDE8F081000C0240006400400004024060
:1012400000680040014608687047014649488142ED
:1012500001D2002070474848814201D20820F9E7B6
:101260004648814201D21020F4E74548814201D22C
:101270001820EFE74348814201D22020EAE74248A4
:10128000814201D22820E5E74048814201D2302046
:10129000E0E73F48814201D23820DBE73D48814208
:1012A00001D24020D6E73C48814201D24820D1E714
:1012B0003A48814201D25020CCE75820CAE72DE9B4
:1012C000F04704460E4617464FF009080025A94688
:1012D000B4F1006F02D304F0030008B1BDE8F08759
:1012E00005F0F8FF002005F0D8FF254604EB87093C
:1012F0002B48854215D211E02846FFF7A3FF401C7A
:1013000058B12846FFF7A1FF8246022106F036F8C1
:101310008046B8F1090F01D002E02D1D4D45EBD3F9
:1013200000BFB8F1090F0CD108E02046316806F083
:1013300041F9092800D003E0241D361D4C45F4D3A3
:1013400000BF012005F0A9FF05F0D1FF00BFC5E7F0
:1013500030B503460C461546002206E01846FFF756
:1013600071FF44F822001B1D521CAA42F6D330BD67
:1013700070477047004000080080000800C0000867
:101380000000010800000208000004080000060830
:101390000000080800000A0800000C0800000E0801
:1013A0000000FF1F1CB50121082003F0F8FB4FF4DB
:1013B0004070009002208DF8040000208DF8060097
:1013C00003208DF8050000208DF807006946494884
:1013D00003F044F907220921464803F0CAF907221D
:1013E0000821444803F0C5F91CBD1FB5012188043C
:1013F00003F01CFC404803F06FFD4FF4E130009017
:101400000020ADF80400ADF80600ADF808000C208F
:10141000ADF80A000020ADF80C006946364803F02C
:10142000C2FD0121344803F046FE0122402132482A
:1014300003F0EEFE1FBD08B50C208DF80000002063
:101440008DF8010003208DF8020001208DF80300C3
:10145000684603F012F808BD00B58FB001214805B9
:1014600003F09DFB0021254804F034FD00BF234814
:101470002838806A00F001000028F8D11F4804F0E5
:101480004DFC4FF0006000901B48001D01901C486F
:1014900002900020039008200490002005904FF453
:1014A000806006900020079008904FF480700990AB
:1014B0004FF440300A9000200B900C900D900E904D
:1014C00069460E4804F0CCFC012210210B4804F0C0
:1014D0008EFD0121094804F0FDFC0FB000BD10B5E0
:1014E000FFF760FFFFF781FFFFF7A5FFFFF7B4FFEE
:1014F00010BD0000000C024000480040286002407F
:101500003806002000B597B00121202003F09FFB92
:101510000121402003F043FB0121880503F03FFB3C
:1015200008220921FE4803F024F908220E21FC4874
:1015300003F01FF94FF40070159002208DF8580049
:1015400003208DF8590000208DF85A0001208DF8F5
:101550005B0015A9F24803F081F8F24804F0DEFBC5
:101560000021F04804F0B6FC00BFEE4804F0FFFC98
:101570000028FAD14FF020600190EB480290EB4830
:1015800003900020049078200590002006904FF4EE
:10159000806007900020089009904FF480700A90B6
:1015A00000020B9000200C9003200D9000200E9064
:1015B0000F9001A9DB4804F053FC0121D94804F045
:1015C00089FCD948001F03F087FC4FF4E1301190EB
:1015D0000020ADF84800ADF84A00ADF84C00ADF879
:1015E00050000420ADF84E0011A9CF48001F03F0B1
:1015F000DAFC0121CC48001F03F05DFD002240F21F
:101600002661C948001F03F00CFE002240F225515C
:10161000C548001F03F005FE012240F22441C248E4
:10162000001F03F0FEFD47208DF8400003208DF8D9
:1016300041008DF8420001208DF8430010A802F00F
:101640001CFF01224021B848001F03F0E1FD17B044
:1016500000BD10B50246002329E0002021E002EB86
:101660008004D4ED000A441C02EB840494ED001ABB
:10167000F4EEC10AF1EE10FA11DD02EB800494EDF4
:10168000000A441C02EB8404D4ED000A02EB80043F
:10169000C4ED000A441C02EB840484ED000A441CDF
:1016A000E0B24C1EE41A8442D9DC5C1CE3B24C1E4E
:1016B0009C42D2DC10BD30B5034605E013F8010BA7
:1016C00080EA02049A48025D0800A1F10101F5D107
:1016D000104630BD70B505460C4600260DB1022CF3
:1016E00001D8002070BD611EFF222846FFF7E3FFEE
:1016F0000646601E285CB04201D10120F2E70020BE
:10170000F0E770B52DED028B9FED8A0AB0EE408AAE
:10171000894804F002FCC0F17800C5B20024A4E0BE
:101720008248005DA5282DD1611D8048FFF7D2FFBA
:10173000002827D07D49601C095C7C4AA01C105CF5
:1017400041EA00207D49A1F801001146E01C085C37
:101750007A49C8701146601D095CA01D105C41EA01
:10176000002000B27549C8800846C08801280AD107
:101770000846B0F801206D4BE01D19186F4808307D
:1017800009F0E1FF70E06D48C088022813D1674975
:10179000E01D085C6949097C60F303016748017436
:1017A0006249E01D085C00206449097C60F3071170
:1017B0006248017458E06148C08803280AD15F4834
:1017C000B0F80120594BE01D19185C48113009F0A0
:1017D000BAFF49E05948C08804280AD15748B0F8F0
:1017E0000120524BE01D19185448173009F0ABFF87
:1017F0003AE05248C08805280AD15048B0F8012084
:101800004A4BE01D19184D482B3009F09CFF2BE086
:101810004A48C08806280AD14848B0F80120434BFE
:10182000E01D191845482D3009F08DFF1CE0434894
:10183000C08807280AD14148B0F801203B4BE01D81
:1018400019183E482E3009F07EFF0DE03B48C08855
:10185000082809D13948B0F80120344BE01D191887
:101860003648303009F06FFF641CAC42FFF458AFCB
:101870003248D0F81F00324948603048D0F81F0085
:101880003049314A127841F822002F480078401C34
:101890002D49087008460078052821D100200870DD
:1018A00001202A49087005212648FFF7D2FE0124AD
:1018B00009E0244800EB840090ED000A30EE080AAD
:1018C000B0EE408A641C032CF3D9B0EE080AC8EECF
:1018D000000A1B48C0ED060A9FED160AB0EE408ACA
:1018E000BDEC028B70BD10B5002400BF40F2244156
:1018F0000D48001F03F0D0FC60B30B48001F0488A4
:10190000001D048800200D4908640021054804F0EA
:10191000E1FAFFF7F6FE0E49024804F054FB1AE024
:10192000001802404064024004140140E401002019
:10193000D7DF000800000000886002405C02002041
:10194000A0020020D80200201E0000201B00002062
:10195000400F001007E078210D4804F0DCFA012167
:101960000B4804F0B7FA00BF10BD70B505460C4631
:1019700000260DB1022C00D870BD611EFF22284642
:10198000FFF799FE0646601E2E5400BFF4E70000E4
:10199000406402401CB50121084603F000F94FF4F1
:1019A0008060009000208DF8040003208DF8050071
:1019B00000208DF807006946014802F04FFE1CBD6B
:1019C000001402401CB50121084603F0E8F801208C
:1019D00000908DF8040000208DF8060003208DF89B
:1019E000050001208DF807006946044802F036FE24
:1019F0000121024802F0AEFE1CBD000000000240C2
:101A00001CB500200090019000BFFE48C068401C3B
:101A1000FC49C860FC488069401CFB498861FB4860
:101A2000D0F8A000401CF949C1F8A000F848D0F84F
:101A3000A000401CF649C1F8A000F648806C401C8C
:101A4000F4498864F448006C401CF34908640020A1
:101A500012E000EB400101EB0011F04A02EB8101C2
:101A6000896C491C00EB400202EB0012EB4B03EBCC
:101A700082029164411CC8B20428EADBE148C068D4
:101A80000A2808D30121E648006806F0B4FA0020CD
:101A9000E449086002E00120E2490860DA48806910
:101AA0000A2809D90221DE48006806F0A4FA0020BD
:101AB000DC49091D086003E00120DA49091D0860BE
:101AC000D248D0F8A0000A2809D90421D4480068D7
:101AD00006F091FA0020D3490831086003E00120A4
:101AE000D04908310860CA48D0F8A0000A2809D9AE
:101AF0000821CB48006806F07EFA0020C9490C3165
:101B0000086003E00120C7490C310860C148806CBF
:101B10000A280AD94FF48071C148006806F06BFAB0
:101B20000020C0491031086003E00120BD49103198
:101B30000860B948006C0A280AD94FF40071B84807
:101B4000006806F058FA0020B6491831086003E032
:101B50000120B4491831086000241CE004EB440063
:101B600000EB0410AD4901EB8000806C0A280CD911
:101B7000201D012202FA00F1A948006806F03BFA94
:101B80000020A8491431086007E00120A54914315C
:101B90000860601CC4B2042CE0DB00BF0A2007F020
:101BA00084FF6A464FF400719F48FFF701FB2CE762
:101BB0001FB500BF00BF08F0C0FA039000BF0022AD
:101BC00069469A48006807F004F9002198480068BF
:101BD00006F0B6FBBDF8060010B900209549488014
:101BE000BDF80000404201B28C48A0F8E610082180
:101BF00003A807F0F6FEE2E700BF4FF0FF318E4882
:101C0000006806F0B7FE8D4801F08EFEF5E786B05D
:101C100000BF4FF0FF3201A98948006807F0D9F8EA
:101C200000BF00BFF5E786B000BF4FF0FF3201A94B
:101C30008448006807F0CDF80198A0F20120072839
:101C400076D2DFE800F00415293D516376009DF857
:101C500012109DF8110041EA002000B26F4908807F
:101C60000020886410216E48006806F069FB73E06C
:101C70009DF812109DF8110041EA002000B267495A
:101C8000A1F84C0000216548C0F894102021644858
:101C9000006806F055FB5FE09DF812109DF81100FA
:101CA00041EA002000B25D49A1F8980000215B489C
:101CB000C0F8E01040215A48006806F041FB4BE0B4
:101CC0009DF812109DF8110041EA002000B253491E
:101CD000A1F8E40000215148C0F82C11802150489F
:101CE000006806F02DFB37E09DF810009DF80F10FE
:101CF00040EA012000B24549C8800020C1F8A00098
:101D000004214748006806F01BFB25E09DF8100001
:101D10009DF80F1040EA012000B23D49C880002024
:101D2000C1F8A00008213E48006806F009FB13E056
:101D300011E09DF812109DF8110041EA002000B258
:101D400034490880002088644FF48071344800686A
:101D500006F0F6FA00E000BF67E701464888888091
:101D6000C8884880B1F90200B1F90420801A364AC7
:101D7000904203DA0888401C00B20880B1F90200E2
:101D8000B1F90420801A41F22C02904203DD088848
:101D9000401E00B20880B1F90200B1F90020C2EB88
:101DA0004232104470472DED028B84B04FF0000892
:101DB00000BF00BF0027B946BA46002008EE100A4F
:101DC00008EE900A00BF08F0B8F901900221184807
:101DD000006806F010F908211548006806F00BF9B4
:101DE00000BF164890ED050AB1EE400ABDEEC00AEC
:101DF00010EE100A00B20549A1F854000F4890ED0A
:101E0000030A23E0C0010020E4050020680400204C
:101E10000C0500201C0400205C020020EC020020C5
:101E200080000020840243420064004094000020AF
:101E30007C0000201006002064000020B005002077
:101E40008C00002088000020D4EFFFFFBDEEC00A08
:101E500010EE100A00B2FE49A1F85400002202A9B7
:101E6000FC48006806F0B5FFFB4890ED000AB5EEAF
:101E7000C00AF1EE10FA05D02021F848006806F0FB
:101E8000BAF804E02021F548006806F059FAB8F1E4
:101E9000000F7DD1F248B0F90800F149B1F9061000
:101EA000401AF049884207DAED48C088A0F5005092
:101EB00000B2EB49488016E0E948B0F90800E8496B
:101EC000B1F90610401A41F22C01884207DDE448BE
:101ED000C08800F5005000B2E149488003E0E048C6
:101EE000C088DF494880DA48B0F90800D849B1F91C
:101EF0000610401ADB49884207DAD548C088A0F5A9
:101F0000005000B2D249488016E0D148B0F908002C
:101F1000CF49B1F90610401A41F22C01884207DD81
:101F2000CB48C08800F5005000B2C949488003E0A2
:101F3000C748C088C6494880C94909894FF4B47266
:101F400011FB02F0C11700EBD1414913C44A518182
:101F5000114649884FF4B47211FB02F0C11700EB2F
:101F6000D1414913BE4A9181B94909894FF4B472EC
:101F700011FB02F0C11700EBD1414913B44A518162
:101F8000114649884FF4B47211FB02F0C11700E00A
:101F900038E000EBD1414913AD4A9181B048408906
:101FA000AF498989401A05B210464089114689898E
:101FB000401A06B2291E01DB0A4600E04A42052A01
:101FC0001FDA301E01DB024600E04242052AF7DA42
:101FD0004FF001089FEDA40AA44880ED020A9FED8E
:101FE000A20AA34880ED070A002099490880084604
:101FF000C08848800020888001219848006805F04A
:10200000FAFF96E09A4890ED070AB1EE400ABDEE5D
:10201000C00A10EE100A00B2914988818C48FFF77F
:102020009CFE4FF4B47100FB01F3D81703EBD040D2
:10203000401300B28649888100218848006806F074
:102040007FF9044604F01000102834D107F0100086
:1020500028B98348B0F90A907D48B0F90AA004F085
:10206000200020281AD101207D4948817A4890ED2E
:10207000000ABDEEC00A10EE100A00B288810120ED
:1020800073494881744890ED010AB1EE400ABDEEF3
:10209000C00A10EE100A00B2888149E007F0200063
:1020A000202845D16E4880896D49488168488089DB
:1020B000674948813CE007F0100010280DD16848BE
:1020C0008089A0EB090000B208EE100A6048808900
:1020D000A0EB0A0000B208EE900A9DED030AF8EEAC
:1020E000C80A30EE200ABDEEC00A10EE100A00B297
:1020F0005B4948819DED020AF8EEE80A70EE200A7D
:102100005348B0F9080000EE100AB8EEC00A30EEED
:10211000800ADFED580A20EE200ADFED570A80EE34
:10212000201ABDEEC10A10EE100A00B248494881DB
:102130002746082101A807F054FC52E62DED048B38
:1021400088B0002403220021012006F029FA4B491F
:10215000086003220021012006F022FA48490860A5
:1021600000BF4FF0FF314548006806F003FC032133
:102170003A48006806F0E4F84248006807F064FA5C
:10218000022041490870FEF74CFD00BF384801F0BD
:10219000ABFF374801F0C8FB641C354890ED030ADB
:1021A00010EE101A08460BF099FE41EC190BB0EE38
:1021B000490AF0EE690A0AF0A3FFB0EE408AF0EE99
:1021C000608A9FED320B53EC102B51EC180B0BF087
:1021D0008DFCDBD3264890ED050A10EE101A084658
:1021E0000BF07CFE41EC190BB0EE490AF0EE690AE7
:1021F0000AF086FFB0EE408AF0EE608A9FED250B74
:1022000053EC102B51EC180B0BF070FCBED30A2CC6
:10221000BCDBFEF74CFD01201B490870811E1848ED
:10222000006806F0A7FB0220174908700C48C08818
:102230000B4908810648C08805490881142103A874
:1022400009F000FB0648B0F906000390004825E0BD
:102250000C05002090000020240600207C000020B7
:1022600068040020D4EFFFFF00000000C001002040
:10227000B00500200000B4430000004670000020BC
:102280007400002054000020290000209A99999998
:102290009999B93F7B14AE47E17A843FB0F90600C3
:1022A0000490FA48406A0590F848C06A0690F748DA
:1022B000806A0790052203A9F548FFF700F8FEF7AA
:1022C000D3FC0020F3490870F34804210023CA011D
:1022D000CDE90010F1A1F64807F068F941E70146A1
:1022E00039B3F44AB2F90020642A0EDAF24A1268CD
:1022F000521CF14B1A601A461268282A05DD012289
:10230000EE4B1A700022EC4B1A60EC4A1278012A4C
:102310000FD1EB4A1268521CE94B1A60E9491A4680
:102320001268142A05DD0022E44B1A70E44B1A608F
:102330000146E04A5180704710B50021E24800682C
:1023400005F0FEFF044604F40070B0F5007F27D1CD
:10235000DE48C07A012804D002280BD003281DD102
:1023600012E0DA48B0F82700D72802DD0020FFF796
:10237000B6FF14E0D548B0F82700B0F5A87F02DB1F
:102380000020FFF7ACFF0AE0D048B0F82700B0F516
:10239000E47F02DB0020FFF7A2FF00E000BF00BFE8
:1023A00010BD08B500BF07F0C8FE009000BF0021B7
:1023B000C748006805F0C4FF044604B3012C15D0DB
:1023C000022C0AD0032C22D17D2081078863486328
:1023D0004FF48750FFF783FF1AE078204FF08041D9
:1023E000886348630020FFF77AFF11E0642001074B
:1023F0008863486341F2FC20FFF771FF08E0642026
:102400000107886348630020FFF769FF00E000BF11
:1024100000BFFFF791FF1421684607F0E2FAC6E714
:102420001CB503220021012006F0BAF8A949086072
:1024300003220021012006F0B3F8A749086000BF7D
:102440004FF0FF31A348006806F094FAA3480068F3
:1024500007F0FAF80120A2490870FEF7E2FBC82055
:10246000C106486388634FF0FF319B48006806F05F
:1024700081FA02209A490870FEF7F6FBFA2004E080
:102480004FF0804148638863401E6428F8DA0020DA
:10249000934908709148032100234FF40072CDE95D
:1024A000001090A1924807F081F8C9E700BF00BF73
:1024B0004FF0FF318F48006806F05CFA00208E492B
:1024C000886102218048006805F03AFF8B48007857
:1024D0008A49497840EA01208749898B40F2FF7296
:1024E000511A084000B28449088084484078C010DE
:1024F0008249897840EA4110C0F30A007E49488049
:102500007E48807880117D49C97840EA81007B4906
:10251000097940EA8120C0F30A007749888077482A
:10252000007940107549497940EAC110C0F30A00AA
:102530007149C880714840790011800808726F485D
:102540004079C0F3011048726C4880796B49C979B1
:1025500040EA012000B2684948816848007A67492A
:10256000497A40EA012001B2634881816348807A58
:102570006249C97A40EA012001B25F48C1815F48DF
:10258000017B5D4801745D48417B5B4841745B4859
:10259000807B5A49C97B40EA01215748418290F922
:1025A000090001282FD0022802D0032840D103E0DF
:1025B0000020534908803CE04FF496705049088051
:1025C00003214348006805F0BBFE4B48007A03280E
:1025D0000AD102213E48006805F00DFD01213C486A
:1025E000006805F0ADFE08E04348007A022804D1F7
:1025F00003213748006805F0FEFC042141480068CB
:1026000005F0F9FC15E000203D49888008804880ED
:1026100003212F48006805F093FE04213948006823
:1026200005F08EFE08213748006805F0E4FC00E064
:1026300000BF00BF0223002231493348006806F082
:1026400069F8022300222E490C313048006806F058
:1026500061F82DE708B500BF01202D49086000BFD3
:1026600000BF00BF00BF07F068FD0090B0EE081A81
:10267000F7EE000AB1EE0C0A4FF47A73DA00042187
:102680000C48001DFEF781F9002459E0B005002038
:1026900000000608290000205400002067696D62D0
:1026A000616C436F6E74726F6C7461736B000000C9
:1026B000A71D00081C040020AC000020B40000206E
:1026C000B000002024FAFFFF800000205C02002000
:1026D00078000020680000206C00002038000020F6
:1026E0002800002063616C697461736B0000000056
:1026F000A323000860000020E4050020D001002092
:10270000100600207C000020940000209000002093
:102710002400002004EB440101EB0411EF4A02EB1A
:102720008101081DB7EE001ADFEDED0AB0EE000AD8
:102730004FF47A73DA000421FEF727F9601CC4B263
:10274000042CE7DBB9EE041ADFEDE60A9FEDE60A9A
:102750004FF47A739A000321E448FEF716F99FEDCF
:10276000E11AF7EE000A9FEDE20A4FF47A635A008D
:102770000321DE484830FEF708F9B2EE041ADFED17
:10278000DD0A9FEDDD0A4FF47A739A000321DB48DE
:10279000FEF7FBF8B1EE001AFEEE000A9FEDD80A34
:1027A0004FF4FA635A000321D4484830FEF7EDF89D
:1027B00000BF0021D348006805F0C2FD0546002493
:1027C00021E004EB440303EB0413C44E36F9232049
:1027D00004EB440303EB041306EB8303B3F9021089
:1027E00004EB440303EB041306EB8303181DFEF70D
:1027F00033F8BDEEC00A10EE100A00B2C24921F84B
:102800001400601CC4B2012CDBDB0020BE494880F0
:102810008880C88005F00600062809D0002005E061
:102820000021BA4A22F81010411CC8B20428F7DB74
:10283000B54A4FF40071B648FEF7BAFC0621684667
:1028400007F0CFF8B5E788B0FEF7BEF9FEF746FB14
:10285000FEF7A8FAFFF79EF8FFF7B4F84FF4E1305F
:1028600000F012FBFEF79EFCFEF739FEFEF74AFE73
:1028700001F0CCF8142103A808F0E4FF052203A915
:10288000A448FEF765FD039800B298491039088105
:10289000049800B29949103908819F490598486207
:1028A0000698C86207988862642007F0FEF8002442
:1028B00000BF9A48B0F90200B0F5806F2AD16420B9
:1028C00007F0F3F8601CC4B2282C25DB9348B0F95C
:1028D0000000A0F580609149C8610024FEF77EF9F0
:1028E0008F48052100234FF40072CDE90010AFF2AC
:1028F00054218C4806F05AFE8B4806210023802282
:10290000CDE9001089A18E4806F050FE002006F0A7
:102910009BFE01E0FEF746FA322007F0C6F8C8E752
:102920002DED028B82B005F0B6FA00220121084697
:1029300005F036FE8349086000221421012005F0CD
:102940002FFE8149086000221421012005F028FE95
:102950007E49086000220821012005F021FE7C4903
:10296000086000220A21012005F01AFE794908605A
:1029700003220021012005F013FE7749086003229D
:102980000021012005F00CFE7449086005F026FBCB
:102990007349086005F022FB5A49086005F01EFBE8
:1029A000704908607048042100238022CDE900109E
:1029B0006EA1714806F0FAFD70480221002340F232
:1029C0000342CDE900106EA1704806F0EFFD70489B
:1029D000032100234FF40072CDE900106DA172486D
:1029E00006F0E4FD7148042100238022CDE90010A7
:1029F000AFF210316E4806F0D9FD6E480721002372
:102A00008022CDE900106CA16E4806F0CFFD6E4823
:102A1000052100234FF49672CDE900106BA16F4899
:102A200006F0C4FD6E48052100234FF49672CDE9EF
:102A300000106CA16F4806F0B9FD6F480521002316
:102A40008022CDE900106DA1704806F0AFFD7048FE
:102A5000032100234FF40072CDE900106DA17148ED
:102A600006F0A4FD7048032100234FF40072CDE965
:102A700000106EA1724806F099FD05F033FA00BF10
:102A80007048D0F8131008460BF028FA41EC180BE8
:102A90006C48807C53EC182B00906BA008F056FD1E
:102AA0006E480178002000F0E7F84FF480416C4850
:102AB00001F05BFE4FF4FA7006F0F7FFE0E71CB59B
:102AC000684802210023C822CDE9001066A16948A8
:102AD00006F06CFD07F0E4FA1CBD0000EC020020DB
:102AE000CDCCCC3D000000003333434178040020BE
:102AF0000000144217B7D1B83333E3C01C050020DF
:102B0000000036C27C000020A40000209C000020B1
:102B10000064004000000608B0050020E405002025
:102B200054000020A71D00084C00002050494443D9
:102B3000616C63756C6174655461736B00000000B7
:102B40005526000884000020880000208C0000200A
:102B5000900000209400002060000020640000200D
:102B60007800002080000020480000206273706917
:102B70006E69747461736B00472800082C00002094
:102B8000646275737461736B00000000AD2400080B
:102B9000380000206672694D6F746572436F6E7401
:102BA000726F6C7461736B00A32300083400002003
:102BB0002124000858000020696D7563616C6974F8
:102BC00061736B003D2100083C00002043616E31C1
:102BD000526563656976657461736B00271C000834
:102BE0004000002043616E3252656365697665740A
:102BF00061736B000F1C000844000020494D5552C2
:102C00006563656976657461736B0000F91B000884
:102C100050000020434D436F6E74726F6C7461738B
:102C20006B000000B11B00085C0000204F66666C62
:102C3000696E656465746563747461736B0000002C
:102C4000011A00085C02002073706565643A25660D
:102C50002020206672653A25640D0A009800002045
:102C6000001402403000002073746172745F74615C
:102C7000736B00002129000870B504460D46FF2043
:102C800037490870084644708570FE20C8700020DF
:102C90003449087012E000BF4021334802F0E6FAE0
:102CA0000128F9D12E482F4A1278815C2E4802F073
:102CB0002DFA2C480078401C2A49087029480078D1
:102CC0000428E8DB70BD002000BF10E02749095C44
:102CD000FF290BD1254AC11D515CFE2906D1411C9B
:102CE0001144234A0B68136089889180401C0A288C
:102CF000ECDB1F49B1F9001000EE101AB8EEC00A63
:102D0000B1EE400ADFED1B0A80EE201A1A4981ED70
:102D1000001A1749B1F9021000EE101AB8EEC00AF5
:102D2000B1EE400ADFED130A80EE201A124981ED60
:102D3000011A0F498988104A118111460989012910
:102D400004D1114691ED010A81ED010A0A49098970
:102D5000022904D1084991ED010A81ED010A704769
:102D6000BB000020BF0000200048004038060020C3
:102D7000B50000200000C8422406002010B507F06E
:102D800058FC012801D005F0C9F810BD70B5044603
:102D9000042001F0BFFB3248047025464FF47A70DE
:102DA000454301202F4908804FF0E020006940F0A2
:102DB00002004FF0E021086108464561006940F0DB
:102DC0000100086170BD70B5034600224FF0E02697
:102DD0007569234E367803FB06F44FF0E026B1699F
:102DE00010E04FF0E026B06988420BD0884202D252
:102DF0000E1A324402E02E1A0E4432440146A24218
:102E000000D300E0EDE700BF70BD70B5044607F0E9
:102E100010FC012811D013480088844206DB1148B9
:102E2000008894FBF0F5284606F03FFE0D48008828
:102E300094FBF0F100FB114084B24FF47A7104FB73
:102E400001F0FFF7C0FF70BD30B50446002504E077
:102E50004FF47A70FFF7B7FF6D1CA542F8D330BD71
:102E6000C0000020C2000020014600BF00207047C3
:102E7000C2B2254B1A8000BF234A121F128802F0EB
:102E80004002002AF8D0704710B586B004460121F0
:102E9000082001F084FE0121480401F0C7FE07224A
:102EA00005211A4801F065FC07220621174801F0A8
:102EB00060FC02208DF814008DF8150000208DF8BC
:102EC000160001208DF817006020049004A90F4817
:102ED00001F0C4FB00940020ADF80400ADF806003A
:102EE000ADF80800ADF80C000C20ADF80A006946FA
:102EF0000548001F02F057F801210348001F02F0A7
:102F0000DAF806B010BD000004440040000C024096
:102F1000F0EE400AF6EE001A60EEA11AB0EE611A69
:102F2000B0EE600A10EE100AFE49A1EB600000EE60
:102F3000100A21EE002AF7EE081A42EE401A61EE5E
:102F4000801AB0EE610A704730B587B00546F64A80
:102F50000DF11A0006A9031FCDE90102009105AA8F
:102F6000891F04A800F0B7FF00241DE0032C0BDA32
:102F700004A830F9140000EE100AB8EEC00A05EB00
:102F8000840080ED000A0EE004A830F9140000EE81
:102F9000100AB8EEC00ADFEDE50A80EE201A05EB54
:102FA000840080ED001A641C062CDFDB07B030BD06
:102FB00000B52DED108B9BB0F0EE40AAB0EE60BADC
:102FC000F0EE41BAB0EE61DAB0EE42CAF0EE62CA9B
:102FD000B0EE43AAF0EE638AB0EE449AD44890ED86
:102FE000000AD0ED000A20EE200A8DED0B0A90EDCC
:102FF000000AD048D0ED000A20EE200A8DED0A0A22
:10300000CB4890ED000ACC48D0ED000A20EE200A13
:10301000F0EE40EAC64890ED000AC848D0ED000A3C
:1030200020EE200A8DED090AC24890ED000AD0ED8D
:10303000000A20EE200A8DED080A90ED000ABE4835
:10304000D0ED000A20EE200A8DED070AB94890ED78
:10305000000ABA48D0ED000A20EE200AB0EE40FA8D
:10306000B54890ED000AD0ED000A20EE200A8DED63
:10307000060A90ED000AB148D0ED000A20EE200AC1
:103080008DED050A90ED000AD0ED000A20EE200A31
:103090008DED040A01F0EDF8A949086008460068C2
:1030A000A8490968884210D2A64800684FF6FF7107
:1030B000081AA3490968084400EE100AB8EE400A4D
:1030C000DFEDA10AC0EE209A0CE09D4800689D4902
:1030D0000968401A00EE100AB8EE400ADFED9A0ABD
:1030E000C0EE209A96480068964908606DEE0D0A79
:1030F0004CEE0C0A4CEEAC0AB0EE600AFFF708FF8B
:10310000B0EE408A2DEE080AB0EE40DA2CEE080A46
:10311000B0EE40CA2CEE880AF0EE40CA6AEE0A0A07
:1031200048EEA80A49EE090AB0EE600AFFF7F0FE81
:10313000B0EE408A2AEE080AB0EE40AA28EE880ACD
:10314000F0EE408A29EE080AB0EE409AB0EE000A8E
:103150006AEE000A9DED060AB6EE001A31EE401A3C
:103160009DED040A31EE400A20EE800AF0EE000ADE
:1031700068EEA01ADDED070A9DED091A70EEC10A8E
:1031800001EEA00AF0EE000A69EE200A3FEE2E1AC8
:1031900000EE810A8DED1A0AB0EE000A2AEE001A3E
:1031A0009DED070ADDED090A30EE200A21EE000A46
:1031B000F0EE000A28EEA01ADDED080AF6EE001A7D
:1031C00071EEE01ADDED040A71EEE00A01EE200A6C
:1031D000F0EE000A69EE201ADDED050A9DED0A1AEF
:1031E00070EEC10A01EEA00A8DED190AB0EE000AD8
:1031F0002AEE000A7FEE6E0A20EE200AF0EE000AA8
:1032000068EEA01ADDED050A9DED0A1A70EE810A3E
:1032100001EEA00AF0EE000A29EE201ADDED080A00
:10322000F6EE001A71EEE01ADDED060A71EEE00A24
:10323000F0EE40DA41EE20DA9DED1A0A60EE000A67
:103240009DED190A40EE000A10EE901A08460AF0A9
:1032500045FECDE900019DED000B09F05BFF8DED12
:10326000020B9DED020B51EC100B0AF0AFF80FEEC4
:10327000900AB0EE6DEA3FEE6E0AF0EE000A20EE24
:10328000200A8DED180A9DED0A0ADDED050A30EEE3
:10329000200AF0EE000A20EE200A8DED170A9DEDBF
:1032A0000B0ADDED080A70EE600A9DED060A70EE6D
:1032B000C00A9DED040A30EE800A8DED160AB0EECC
:1032C000000A6FEE800A9DED060AB6EE001A31EE96
:1032D000401A9DED040A31EE400A20EE800AF0EE1D
:1032E0004EDAF0EE000A6DEEA00A3FEE6E1A00EE26
:1032F000810A8DED150AB0EE000A2FEE801A9DEDC1
:10330000070ADDED090A30EE600A21EE000AF0EE50
:103310004EDAF0EE000A6DEEA01ADDED0A0A9DED20
:10332000051A13E0DF59375FB0050020333303423D
:10333000D4000020D8000020DC000020E0000020A5
:10334000F0000020EC0000200024F44970EE810A17
:1033500001EEA00A8DED140AB0EE000A2FEE800AED
:103360007EEE8F0A20EE200AF0EE4EDAF0EE000A32
:103370002DEEA01ADDED080AF6EE001A71EEE01A45
:10338000DDED060A71EEE00A01EE200A8DED130A6A
:103390009DED160A6CEE000A9DED170A4CEEC00A70
:1033A0009DED130A28EE801A9DED140A09EE401ACD
:1033B00030EE810A8DED120A9DED180A6CEE800A3E
:1033C0009DED160A4DEE400A9DED150A29EE001AF4
:1033D0009DED130A0AEE401A30EE810A8DED110AB6
:1033E0009DED170A6DEE000A9DED180A4CEE400A9D
:1033F0009DED140A2AEE001A9DED150A08EEC01A7A
:1034000030EE810A8DED100A9DED120AB5EEC00A6C
:10341000F1EE10FA61D09DED110AB5EEC00AF1EEA1
:1034200010FA5AD09DED100AB5EEC00AF1EE10FA6E
:1034300053D09DED120ADFEDFE0A60EE200AFD4832
:1034400090ED000A00EEA90A80ED000A9DED110A38
:10345000DFEDF70A60EE200AF74890ED000A00EE73
:10346000A90A80ED000A9DED100ADFEDF10A60EE79
:10347000200AF24890ED000A00EEA90A80ED000A49
:103480009DED120AB0EE001AF0EE6A0A41EE000A53
:10349000E84890ED000A30EE800AF0EE40AA9DED7B
:1034A000110AB0EE001AF0EE4B0A41EE000AE248B3
:1034B00090ED000A30EE800AB0EE40BA9DED100AA1
:1034C000B0EE001AF0EE6B0A41EE000ADB4890ED18
:1034D000000A30EE800AF0EE40BAD94890ED000ABA
:1034E000B1EE400A20EE2A0AD648D0ED000A00EEDE
:1034F000CB0AD54890ED001AF0EE400A41EE6B0A77
:10350000D24890ED000A00EEA90A8DED0F0A90ED69
:10351000000A20EE2A0ACB48D0ED000A00EEAB0AE2
:10352000C94890ED001AF0EE400A41EE4B0AC4483B
:1035300090ED000A00EEA90A8DED0E0AC34890ED49
:10354000000A20EE0B0ABE48D0ED000A00EEEB0A9E
:10355000BD4890ED001AF0EE400A41EE2A0AB94843
:1035600090ED000A00EEA90A8DED0D0AB74890ED26
:10357000000A20EE2B0AB248D0ED000A00EE8B0ABA
:10358000B04890ED001AF0EE400A41EE6A0AAE48EB
:1035900090ED000A00EEA90A8DED0C0ADDED0F0A90
:1035A00020EEA01ADDED0E0A00EEA01ADDED0D0AE8
:1035B00000EEA01ADDED0C0A00EEA01AB0EE410AF2
:1035C000FFF7A6FCB0EE408A9DED0F0A20EE080A38
:1035D0009E4880ED000A9DED0E0A20EE080A9848EC
:1035E00080ED000A9DED0D0A20EE080A954880ED59
:1035F000000A9DED0C0A20EE080A934880ED000AAF
:103600001BB0BDEC108B00BD30B52DED0C8B87B021
:1036100005460C469FED8E0A8DED020A9FED8C0A41
:103620008DED010A9FED8A0A8DED000A2046FFF715
:103630008BFC94ED050ADFED870A20EE200ADFED12
:10364000860A80EE201AB0EE418A94ED040ADFED7E
:10365000810A20EE200ADFED800A80EE201AF0EECB
:10366000418A94ED030ADFED7B0A20EE200ADFEDAC
:103670007A0A80EE201AB0EE419A94ED020AF0EE3A
:10368000402A94ED010AB0EE402A94ED000AF0EED3
:10369000401A9FED6F4ADFED6E3A9FED6D3AB0EE46
:1036A000481AF0EE680AB0EE490AFFF781FC674855
:1036B00090ED000A8DED030A614890ED000A8DED52
:1036C000040A604890ED000A8DED050A5E4890ED11
:1036D000000A8DED060A9DED050AF8EE000A20EEBF
:1036E000200ADDED050A20EE200ADDED060AB0EE27
:1036F000001A60EE810A9DED061A00EEC10AF7EE8F
:10370000000A30EE200A10EE101A08460AF0E6FB16
:1037100041EC1C0B9DED040AF0EE000A20EE200A9D
:10372000DDED050A20EE200ADDED030AB0EE001AF9
:1037300060EE810A9DED061A00EE810A10EE101A65
:1037400008460AF0CBFB41EC1D0BB0EE4C1AF0EE34
:103750006C1AB0EE4D0AF0EE6D0A09F0D9FBB0EE2E
:1037600040BAF0EE60BA51EC1B0B09F023FE41ECBD
:103770001A0B9FED3A0B53EC102B0AF0B9F841EC01
:10378000190B9FED380B53EC102B09F005FF41ECA2
:10379000180B09F01BFE00EE100A85ED000A9DEDE6
:1037A000040AF8EE000A20EE200ADDED060A20EEFB
:1037B000200ADDED030AB0EE001A60EE810A9DEDED
:1037C000051A00EE810A10EE101A08460AF086FB70
:1037D00041EC1C0BB0EE4C0AF0EE6C0A09F07CF8E0
:1037E000B0EE40BAF0EE60BA51EC1B0B09F0E2FD0E
:1037F00041EC1A0B9FED190B53EC102B0AF078F8E3
:1038000041EC190B9FED170B53EC102B09F0C4FE84
:1038100041EC180B09F0DAFD00EE100A85ED010A03
:103820009DED040AF8EE000A20EE200A1EE00000DA
:103830000AD7233CC8000020CC000020D000002084
:10384000D8000020DC000020E0000020D400002090
:1038500000000000DB0F494000003443000000007E
:103860000080664000000060FB210940DDED040A95
:1038700020EE200ADDED050AB0EE001A60EE810AA6
:103880009DED051A00EEC10AF7EE000A30EE200A9F
:1038900010EE101A08460AF021FB41EC1B0B9DEDBF
:1038A000050AF0EE000A20EE200ADDED060A20EE01
:1038B000200ADDED030AB0EE001A60EE810A9DEDEC
:1038C000041A00EE810A10EE101A08460AF006FBF0
:1038D00041EC1C0BB0EE4B1AF0EE6B1AB0EE4C0A3A
:1038E000F0EE6C0A09F014FBB0EE40AAF0EE60AA0C
:1038F0001FED260B53EC102B51EC1A0B09F0F8FFBF
:1039000041EC190B1FED290B53EC102B09F044FE71
:1039100041EC180B09F05AFD00EE100A85ED020A81
:1039200007B0BDEC0C8B30BD10B58CB00446002048
:1039300009900A900B902421684607F083FF69469E
:1039400009A8FFF761FE9DED030A84ED030A9DEDD2
:10395000040A84ED040A9DED050A84ED050A9DED37
:103960000A0A84ED060A9DED0B0A84ED080A94ED1F
:10397000070AD4ED050A9FED041A00EE810A84EDD2
:10398000070A0CB010BD00006F12833A1CB501216C
:10399000022001F004F94FF48070009000208DF8AF
:1039A000040003208DF8050002208DF80700694609
:1039B0001B4800F053FE1CBD08B517208DF8000011
:1039C00006208DF8010000208DF8020001208DF8FE
:1039D0000300684600F051FD08BD1CB501218803B5
:1039E00001F035F90821012001F03DFA4FF4807013
:1039F000009000208DF804000C208DF805000120B7
:103A00008DF80600684603F081FF1CBD10B500F07C
:103A100024FCFFF7BBFFFFF7CFFFFFF7DEFF10BD72
:103A20000004024070B505460C460020F9490860C4
:103A300005F07F00F84908700846007800F0CBFCDC
:103A4000F5480470007800F0C6FC0120F349C1F885
:103A50009802002070BD10B504460020ED490860B2
:103A600044F08000EE4908700846007800F0B3FC8E
:103A700044F0800000F0AFFCEA4908700120E749FB
:103A8000C1F89802E748007810BD10B5044644F02C
:103A90008000E54908700846007800F09CFCE34986
:103AA00008700846007810BD70B504460D46002128
:103AB0002A20FFF7B7FF0220FFF7A7F921462920A8
:103AC000FFF7B0FF0220FFF7A0F929466420FFF7B7
:103AD000A9FF0220FFF799F981212A20FFF7A2FF11
:103AE0000A20FFF792F970BD70B5044621463220D6
:103AF000FFF798FF0A20FFF788F980213420FFF7AD
:103B000091FF0A20FFF781F93520FFF7A4FF054652
:103B100000213420FFF786FF0A20FFF776F92846B8
:103B200070BD70B504460E46154621462820FFF7A5
:103B300079FF0220FFF769F90A212920FFF772FFB8
:103B40000220FFF762F901216420FFF76BFF0220DA
:103B5000FFF75BF944F080012520FFF763FF0220A7
:103B6000FFF753F931462620FFF75CFF0220FFF7ED
:103B70004CF903213420FFF755FF0220FFF745F9E8
:103B800003216720FFF74EFF0220FFF73EF9812156
:103B90002A20FFF747FF0620FFF737F945F080019D
:103BA0002720FFF73FFF0720FFF72FF970BD10B563
:103BB00030216A20FFF736FF0A20FFF726F90D2192
:103BC0002420FFF72FFF0A20FFF71FF90E212820DE
:103BD000FFF728FF0A20FFF718F98E213120FFF7A1
:103BE00021FF0A20FFF711F901210B20FFF75CFFED
:103BF0000020FFF779FF102801D0012010BD0A2016
:103C0000FFF703F900210A20FFF74EFF0A20FFF714
:103C10006BFF08B10220F1E70A20FFF7F6F8002158
:103C20000B20FFF741FF0B20FFF75EFF08B10320D9
:103C3000E4E70A20FFF7E9F824214120FFF734FFE9
:103C40004120FFF751FF242801D00420D6E70A20A5
:103C5000FFF7DBF8C0214220FFF726FF4220FFF7E5
:103C600043FFC02801D00520C8E70A20FFF7CDF8A0
:103C700000212A20FFF7D6FE0A20FFF7C6F8002110
:103C80003420FFF7CFFE0A20FFF7BFF806220321FA
:103C90000E20FFF746FF6420FFF7B7F80020ADE7DE
:103CA00010B50446E006010E1C20FFF7BBFE10BD58
:103CB00010B50446E006010E1B20FFF7B3FE10BD51
:103CC0002DE9F04304460D46DDE907670020002199
:103CD000012041E0DFF858C13CF81080A0F1010C50
:103CE000DFF84C9129F81C8009F1160C3CF8109073
:103CF000A0F1010CDFF8388108F1160828F81C90B3
:103D000008F1160C3CF81090A0F1010C08F116080F
:103D100028F81C9008F1160C3CF81090A0F1010C4A
:103D200008F1160828F81C9008F1160C3CF81090C1
:103D3000A0F1010C08F1160828F81C9008F1160CE7
:103D40003CF81090A0F1010C08F1160828F81C901E
:103D500000F1010C0CF0FF000A28BBDBDFF8D0C03B
:103D6000ACF81240ACF82850ACF83E20ACF8543017
:103D7000ACF86A60ACF88070002008E0DFF8B0C0F2
:103D80003CF910C0614400F1010C0CF0FF000A285E
:103D9000F4DB4FF00A0C91FBFCFC0FFA8CFCDFF813
:103DA0009080A8F814C0002100200AE0DFF880C04D
:103DB0000CF1160C3CF910C0614400F1010C0CF040
:103DC000FF000A28F2DB4FF00A0C91FBFCFC0FFA13
:103DD0008CF8DFF85CC0ACF82A80002100200AE0F3
:103DE000DFF84CC00CF12C0C3CF910C0614400F120
:103DF000010C0CF0FF000A28F2DB4FF00A0C91FBDB
:103E0000FCFC0FFA8CF8DFF828C0ACF840800021E9
:103E1000002018E0988242422E0100200080424299
:103E2000300100202F01002032010020310100204C
:103E300076060020DFF844C43CF910C0614400F16C
:103E4000010C0CF0FF000A28F4DB4FF00A0C91FB88
:103E5000FCFC0FFA8CF8DFF824C4ACF1420CACF88F
:103E60005680002100200AE0DFF810C40CF1160C87
:103E70003CF910C0614400F1010C0CF0FF000A286D
:103E8000F2DB4FF00A0C91FBFCFC0FFA8CF8DFF828
:103E9000ECC3ACF1420CACF86C80002100200AE0CD
:103EA000DFF8D8C30CF12C0C3CF910C0614400F1D0
:103EB000010C0CF0FF000A28F2DB4FF00A0C91FB1A
:103EC000FCFC0FFA8CF8DFF8B4C3ACF1420CACF890
:103ED0008280BDE8F0832DE9F04786B005460E46A6
:103EE00017469846DDE90E9A109C0020E4490860C8
:103EF000BB2000F070FA3B20FFF7C7FD8DF80800EB
:103F00003C20FFF7C2FD8DF809009DF809009DF8DF
:103F1000081040EA012000B2DA4908803D20FFF78E
:103F2000B4FD8DF80A003E20FFF7AFFD8DF80B00C1
:103F30009DF80B009DF80A1040EA012000B2D2491A
:103F400008803F20FFF7A1FD8DF80C004020FFF70F
:103F50009CFD8DF80D009DF80D009DF80C1040EAB9
:103F6000012000B2C94908804120FFF78EFD8DF87D
:103F70000E004220FFF789FD8DF80F009DF80F001D
:103F80009DF80E1040EA012000B2C149C8804320CC
:103F9000FFF77BFD8DF810004420FFF776FD8DF8CC
:103FA00011009DF81100BB490989401A9DF81010B5
:103FB00040EA012000B2B84908804520FFF765FDBE
:103FC0008DF812004620FFF760FD8DF813009DF874
:103FD0001300B0494989401A9DF8121040EA0120A7
:103FE00000B2AE4908804720FFF74FFD8DF814005E
:103FF0004820FFF74AFD8DF815009DF81500A549EA
:104000008989401A9DF8141040EA012000B2A449A1
:1040100008800120A349C1F89802A148B0F9000026
:104020009E49B1F90010CDE900109B48B0F900306D
:104030009648B0F900209448B0F900109148B0F9C2
:104040000000FFF73DFE8D484238808A28808B486B
:104050004238408D308089484238B0F8400038807E
:1040600086484238B0F85600A18C401A00B2A8F831
:10407000000082484238B0F86C00218D401A00B22E
:10408000A9F800007D484238B0F88200A18D401A9E
:1040900000B2AAF8000006B0BDE8F08770B5DDE90F
:1040A0000445764E423EB68A0680744E423E768D78
:1040B0000E80724E423EB6F8406016806F4E423E11
:1040C000B6F85660103E36B21E806C4E423EB6F8D0
:1040D0006C60761D36B22680684E423EB6F882602D
:1040E000223636B22E8070BD2DE9F04F87B00446DF
:1040F000002500260027A846A946AA46AB4600BFD1
:1041000011E06420FEF75FFE674A0DF11A0006A970
:10411000031FCDE90102009105AA891F04A8FFF73A
:10412000DAFE681CC5B2322DEBDB002523E0C82087
:10413000FEF749FE5C4A0DF11A0006A9031FCDE9FE
:104140000102009105AA891F04A8FFF7C4FEBDF96A
:1041500010008144BDF912008244BDF9140083446B
:10416000BDF916000644BDF918000744BDF91A0050
:104170008044681CC5B2642DD9DB642096FBF0F046
:104180006062642097FBF0F0A062642098FBF0F07E
:10419000E06207B0BDE8F08F10B5024600210AE0EA
:1041A000424C34F91140944203D1404C34F911305F
:1041B00003E04C1CE1B20829F2DB00BFD41A20B2A4
:1041C00010BD10B586B000241422394901A807F0AB
:1041D000FFFA6420FEF719FE00F0F4F86420FEF701
:1041E00014FE7520FFF737FC702805D031A007F0CA
:1041F000ADF9FF2006B010BD00240DE001AA02EBCE
:104200004402517801AA12F81400FFF70BFC0120B8
:10421000FEF7FBFD601CC4B20A2CEFDB0020E9E7CF
:104220000EB50121082000F001FD4FF0FF30019094
:104230005920ADF800000020ADF80800ADF80200EC
:1042400001211F4802F056F869461D4801F0E7FFBA
:1042500001211B4802F06CF80EBD10B502E0C82029
:10426000FEF7D3FDFFF7ADFFFF28F8D0FFF7D8FF2B
:1042700010BD13482430006870470000B8060020C5
:1042800098824242FA000020FC000020FE0000203C
:10429000420600205C0600200001002002010020F0
:1042A0000401002000804242B005002006010020E9
:1042B000D8E000086572726F722031410D0A00006B
:1042C000000C00401CB50121202000F068FC4FF4D8
:1042D0006070009002208DF8040000208DF8060028
:1042E00003208DF8050000208DF8070069464E4830
:1042F00000F0B4F94020009001208DF80400002067
:104300008DF8060003208DF8050000208DF80700C9
:104310006946454800F0A2F905220721424800F00D
:1043200028FA05220921404800F023FA0522082135
:104330003D4800F01EFA1CBD00B585B001210805FE
:1043400000F085FC0121080500F0D6FC00214FF4A7
:10435000801000F0D1FC0020ADF800004FF4827016
:10436000ADF802000020ADF80400ADF80600ADF88D
:1043700008004FF40070ADF80A003020ADF80C00D2
:104380000020ADF80E000A20ADF81000694627485D
:1043900002F036FD0121254802F02CFE05B000BDDB
:1043A00010B50446214800884FF6C77108401F49E0
:1043B0000880084600882043088001211B4802F03D
:1043C00019FE10BD10B5FFF77DFFFFF7B5FF3020D8
:1043D000FFF7E6FF10BD70B505460126002422E078
:1043E000012E0FD10221114802F082FE50B10024AB
:1043F00001E0601CC4B2C82CFBDB29460B4802F06C
:1044000075FE00267EB90121084802F071FE50B108
:10441000002401E0601CC4B2C82CFBDB034802F09E
:1044200062FEC0B270BDDBE70014024000500140E4
:104430000948804709480047FEE7FEE7FEE7FEE738
:10444000FEE7FEE7FEE7FEE7FEE7FEE70448054974
:10445000054A064B70470000B5060008AD0100088C
:10446000C8340120C83A0120C8360120C8360120CE
:1044700032490143324A1160704770B50021002370
:104480000F22C4781CB32E4C246804F4E064C4F5F5
:10449000E064C4F30721C1F10404E3B20A414478A3
:1044A0009C40E1B28478144021430C07210E254C36
:1044B00005786155047804F01F050124AC400578A7
:1044C0006D11AD0005F1E025C5F8004109E0047863
:1044D00004F01F050124AC401B4D0678761145F809
:1044E000264070BD194A0A400243154B1B1F1A6033
:1044F000704739B1124A121D12680243104B1B1D3E
:104500001A6006E00E4A121D126882430C4B1B1DF6
:104510001A607047042808D14FF0E021096941F082
:1045200004014FF0E022116107E04FF0E02109693A
:1045300021F004014FF0E022116170470000FA05FC
:104540000CED00E000E400E080E100E080FFFF1FF0
:1045500010B504469848844208D10121084600F06D
:1045600087FB0021012000F083FB76E09348844222
:1045700008D10121022000F07BFB0021022000F085
:1045800077FB6AE08E48844208D10121042000F0C4
:104590006FFB0021042000F06BFB5EE08948844241
:1045A00008D10121082000F063FB0021082000F061
:1045B0005FFB52E08448844208D10121102000F0C2
:1045C00057FB0021102000F053FB46E07F48844257
:1045D00008D10121202000F04BFB0021202000F019
:1045E00047FB3AE07A48844208D10121402000F09C
:1045F0003FFB0021402000F03BFB2EE07548844249
:1046000008D10121802000F033FB0021802000F040
:104610002FFB22E07048844208D10121801500F070
:1046200027FB0021A01500F023FB16E06B48844215
:1046300008D10121401500F01BFB0021601500F09E
:1046400017FB0AE06648844207D10121001500F0FB
:104650000FFB0021201500F00BFB10BDF0B50A4642
:1046600000210023002400BF3DE0012505FA01F3ED
:10467000156805EA03049C4234D105684F000326FF
:10468000BE40B543056015794E00B5400668354318
:1046900005601579012D02D01579022D16D1856896
:1046A0004F000326BE40B543856055794E00B540A6
:1046B000866835438560456801268E40B543456070
:1046C000456896798E40B6B235434560C5684F005F
:1046D0000326BE40B543C560D5794E00B540C668D7
:1046E0003543C560491C1029BFD3F0BD4FF6FF719B
:1046F00001600021017141718171C171704708B57C
:104700004FF480320092009A0A430092009AC261EC
:10471000C161009AC261C2690092C269009208BD7B
:104720000246002013690B400BB1012000E000207D
:1047300070470146086980B27047024600205369FD
:104740000B400BB1012000E0002070470146486992
:1047500080B2704701837047418370470AB101837B
:1047600000E0418370474161704742694A404261BD
:104770007047F0B5002300244D07ED0E02FA05F353
:10478000CE1000F1200555F826504E07F70E0F26E3
:10479000BE40B543CF1000F1200646F82750CE109A
:1047A00000F1200555F8265045EA0304CE1000F12B
:1047B000200545F82640F0BD0000024000040240FC
:1047C00000080240000C02400010024000140240A9
:1047D00000180240001C0240002002400024024059
:1047E00000280240F648006840F00100F4490860E3
:1047F0000020F34908310860F1480068F149084099
:10480000EF490860F048091D0860F048EC49843120
:104810000860ED481038091D0860E948006820F478
:104820008020E74908600020E5490C310860E44930
:104830008C31086070470121E14A921C11701146C9
:104840000870704710B501460022002300204A116D
:10485000012A02D1DA4C236808E0022A03D1D84C9D
:104860007034236802E0D64C7434236801F01F02D0
:10487000012494401C400CB1012000E0002010BD38
:1048800038B5002000900024002500BF3120FFF73C
:10489000D9FF05460098401C00900098B0F5A04F45
:1048A00001D0002DF2D03120FFF7CCFF08B1012458
:1048B00000E00024204638BD01460020C04A1068B0
:1048C00020F0F80040EAC10010607047C04908605D
:1048D00070470021BA4A703211701170012802D05D
:1048E00004280AD104E00121B54A7032117005E0B4
:1048F0000521B34A7032117000E000BF00BF70475D
:10490000B4490860704770B5049C41EA82150126DD
:10491000C6EB530645EA0645054345EA0465A84E3D
:10492000361D356070BDAA490866704710B5830111
:1049300043EA016343EA0273A14C8434236010BD4F
:10494000A3498866704710B5830143EA016343EACF
:1049500002739B4C8834236010BD9D4908677047E3
:104960009B49C864704702460020954B083318687D
:1049700020F0EC6042EA01031843914B08331860C1
:104980007047024600208E4B0833186820F07840AC
:1049900042EA010318438A4B083318607047014606
:1049A0000020874A0832106820F003000843106096
:1049B000704783480830006800F00C0070470146DB
:1049C00000207F4A0832106820F0F0000843106091
:1049D0007047014600207A4A0832106820F4E050FF
:1049E00008431060704701460020754A083210687D
:1049F00020F4604040EAC10010607047F0B500212B
:104A0000002200240225002602236D4F08373F684C
:104A100007F00C0121B1042905D0082937D105E0A0
:104A20006D4F076036E06D4F076033E0644F3F1D08
:104A30003F68C7F38056624F3F1D3F6807F03F0352
:104A40006EB1664FB7FBF3F7DFF874C10CF1040CDD
:104A5000DCF800C0CCF3881C07FB0CF40CE05E4FC4
:104A6000B7FBF3F7DFF858C10CF1040CDCF800C019
:104A7000CCF3881C07FB0CF4514F3F1D3F68C7F374
:104A800001477F1C7D00B4FBF5F7076002E0524F41
:104A9000076000BF00BF4A4F08373F6807F0F001CA
:104AA00009094F4F7A5C0768D7404760444F083781
:104AB0003F6807F4E051890A494F7A5C4768D7405C
:104AC00087603F4F08373F6807F46041490B444F08
:104AD0007A5C4768D740C760F0BD002100F440729F
:104AE000B2F5407F0AD1364A0832116821F4F81134
:104AF0003C4A02401143324A08321160304A703257
:104B00001268C0F30B031A432D4B70331A607047C1
:104B100030494439086070472E4940390860704771
:104B200031490860704701460020254A8C321068E0
:104B300020F01F004A1E1043214A8C32106070473B
:104B4000014600201E4A8C32106820F4F8504A1E9C
:104B500040EA02201A4A8C32106070470146002059
:104B6000174A8C32106820F44010084310607047D8
:104B700001460020124A8C32106820F4400008439D
:104B800010607047014600200D4A8C32106820F4F6
:104B9000403008431060704714490860704739B1CD
:104BA000074A303212680243054B30331A6006E080
:104BB000034A303212688243014B30331A60704727
:104BC00000380240FFFFF6EA1030002400300020D9
:104BD00000004742800E47420024F400001BB7004B
:104BE00033010020FFFCFF0F5C014742E011474208
:104BF00029B1934A12680243914B1A6004E0904A2B
:104C0000126882438E4B1A60704739B18C4A121D6C
:104C1000126802438A4B1B1D1A6006E0884A121D67
:104C200012688243864B1B1D1A60704739B1844A53
:104C30000C3212680243824B0C331A6006E0804A41
:104C40000C32126882437E4B0C331A60704739B1C4
:104C50007B4A103212680243794B10331A6006E027
:104C6000774A103212688243754B10331A607047CE
:104C700039B1734A243A12680243714B243B1A60DB
:104C800006E06F4A243A126882436D4B243B1A6057
:104C9000704739B16A4A203A12680243684B203B98
:104CA0001A6006E0664A203A12688243644B203B51
:104CB0001A60704739B1624A1C3A12680243604B6D
:104CC0001C3B1A6006E05E4A1C3A126882435C4B49
:104CD0001C3B1A60704739B1594A143A12680243B2
:104CE000574B143B1A6006E0554A143A1268824347
:104CF000534B143B1A60704739B1514A103A12684D
:104D000002434F4B103B1A6006E04D4A103A1268BE
:104D100082434B4B103B1A60704739B1484A1C32F2
:104D200012680243464B1C331A6006E0444A1C32A8
:104D300012688243424B1C331A60704739B1404AB3
:104D40002032126802433E4B20331A6006E03C4A90
:104D50002032126882433A4B20331A60704739B1CF
:104D6000374A243212680243354B24331A6006E076
:104D7000334A243212688243314B24331A6070471D
:104D800039B12F4A2C32126802432D4B2C331A6052
:104D900006E02B4A2C3212688243294B2C331A60CE
:104DA000704739B1264A303212680243244B3033FF
:104DB0001A6006E0224A303212688243204B3033B8
:104DC0001A607047012808D11D493C31096841F03B
:104DD00008011B4A3C32116007E019493C3109685F
:104DE00021F00801164A3C321160704739B1144A6B
:104DF000273A12780243124B273B1A7006E0104AFA
:104E0000273A127882430E4B273B1A7070470C48A2
:104E10004030006840F080700949403108607047B8
:104E200001460020064A283A12680A400AB10120C9
:104E300000E00020704702492639087070470000E2
:104E40003438024010B501218803FFF755FF0021D7
:104E50004FF48040FFF750FF10BD1C4908607047B9
:104E60001B490862704730B500228B071C0F0F23C7
:104E700003FA04F2154B08338C1053F82430934393
:104E8000124C08348D1044F8253023468C1053F80A
:104E900024308C07240F00FA04F423430B4C08340D
:104EA0008D1044F8253030BD0949DC310860704769
:104EB000084908607047002004492031096801F45E
:104EC000807109B1012000E00020704700380140E6
:104ED000000027420004274210B50446FA488442E5
:104EE00008D101211020FFF707FF00211020FFF754
:104EF00003FF57E0F548844209D101214804FFF738
:104F0000EAFE00214FF40030FFF7E5FE4AE0F048EA
:104F1000844209D101218804FFF7DDFE00214FF40E
:104F20008020FFF7D8FE3DE0EA48844209D1012104
:104F3000C804FFF7D0FE00214FF40020FFF7CBFE9E
:104F400030E0E548844209D101210805FFF7C3FE9E
:104F500000214FF48010FFF7BEFE23E0DF488442BB
:104F600008D101212020FFF7C7FE00212020FFF7F4
:104F7000C3FE17E0DA48844209D101218807FFF710
:104F8000AAFE00214FF08040FFF7A5FE0AE0D548B9
:104F9000844207D101214005FFF79DFE00216005F5
:104FA000FFF799FE10BD2DE9FF4705460E46002488
:104FB000A14600BFA046B08900B100BF2C8A24F4EE
:104FC0004054F08804432C82AC8941F20C60844345
:104FD000B08831890843718908430443AC81AC8AA5
:104FE00024F44074B0890443AC826846FFF706FDA0
:104FF000B548854202D0B948854202D1DDF80C900F
:1050000001E0DDF80890A88900F4004040B109EB08
:10501000C90000EB091031684900B0FBF1F707E067
:1050200009EBC90000EB091031688900B0FBF1F70A
:105030006420B7FBF0F004012009642101FB107823
:10504000A88900F4004040B1322000EBC800B0FB5A
:10505000F1F000F00700044308E0322000EB0810F4
:105060006421B0FBF1F000F00F0004432C81BDE897
:10507000FF874FF41651016000218180C1800181BA
:105080000C21418100218181704710B5024600202A
:10509000108A20F470600B884C8823438C8823434B
:1050A000CC8823431843108210BD00210180418029
:1050B0008180C180704721B1828942F4005282818F
:1050C00004E082894DF6FF731A4082817047028B9B
:1050D00002F47F420283028B0A430283704721B1AC
:1050E000828942F40042828103E08289C2F30E0287
:1050F0008281704721B1828A42F40062828204E098
:10510000828A4FF2FF731A4082827047C1F308020D
:105110008280704701468888C0F308007047028A81
:105120004FF6F0731A400282028A0A4302827047E5
:1051300021B1828942F00202828104E082894FF625
:10514000FD731A408281704782894FF2FF731A40C3
:10515000828182890A4382817047028A4FF6DF7317
:105160001A400282028A0A430282704721B1028AEF
:1051700042F48042028204E0028A4BF6FF731A4036
:1051800002827047818941F001018181704721B11C
:10519000828A42F00802828204E0828A4FF6F77324
:1051A0001A4082827047028BD2B20283028B42EA9B
:1051B00001220283704721B1828A42F0200282825A
:1051C00004E0828A4FF6DF731A408282704721B171
:1051D000828A42F01002828204E0828A4FF6EF73E4
:1051E0001A4082827047828A4FF6FB731A4082828D
:1051F000828A0A438282704721B1828A42F0020287
:10520000828204E0828A4FF6FD731A4082827047E0
:105210001AB1838A0B43838202E0838A8B438382A1
:105220007047F0B50346002400260025002040F614
:105230006A17B94200D100BF1846C1F3421401F009
:105240001F06012707FA06F5012C01D10C3004E0F6
:10525000022C01D1103000E014301AB107682F433E
:10526000076002E00768AF430760F0BD0246002018
:10527000B1F5007F00D100BF13880B400BB10120B6
:1052800000E00020704701F40072B2F5007F00D109
:1052900000BFCA430280704770B502460024002355
:1052A0000025002040F66A16B14200D100BFC1F3CC
:1052B000421501F01F03012606FA03F3012D13D155
:1052C0009689334017E00000001001400044004080
:1052D00000480040004C00400050004000140140D5
:1052E00000780040007C0040022D02D1168A334035
:1052F00001E0968A33400C12012606FA04F416885F
:10530000344013B10CB1012000E0002070BD10B595
:105310000022002340F66A14A14200D100BF0A1205
:1053200001249440A3B2DC43048010BD10B50446B0
:10533000FE48844209D101214806FFF7CCFC002138
:105340004FF00070FFF7C7FC08E001218806FFF767
:10535000C2FC00214FF08060FFF7BDFC10BD30B5EE
:10536000024600200023146824F00204146014682C
:1053700044F00104146000E05B1C546804F0010474
:105380001CB94FF6FF74A342F6D1546804F001042F
:105390000CB900206CE08C79012C04D1146844F025
:1053A0008004146003E0146824F080041460CC7955
:1053B000012C04D1146844F04004146003E0146824
:1053C00024F0400414600C7A012C04D1146844F0D9
:1053D0002004146003E0146824F0200414604C7A64
:1053E000012C04D1146844F01004146003E0146824
:1053F00024F0100414608C7A012C04D1146844F059
:105400000804146003E0146824F008041460CC7AE3
:10541000012C04D1146844F00404146003E01468FF
:1054200024F0040414608C78A407CD7844EA056461
:105430000D7944EA05444D7944EA05540D886D1E02
:105440002C43D461146824F001041460002300E0AC
:105450005B1C546804F001041CB14FF6FF74A342B6
:10546000F6D1546804F001040CB1002000E00120E2
:1054700030BD10B50021837A012202FA03F1AC4A53
:10548000126842F00102AA4B1A60A94A1C32126843
:105490008A43A74B1C331A60027BCAB9A44A0C3258
:1054A00012688A43A24B0C331A604288C38842EACE
:1054B00003439F4A4032847A42F83430028883881A
:1054C00042EA03439A4A4032847A02EBC4025360B0
:1054D000027B012A19D1964A0C3212680A43944B76
:1054E0000C331A604288038842EA0343904A4032F0
:1054F000847A42F83430C288838842EA03438C4A73
:105500004032847A02EBC4025360C27A3AB9884AC4
:10551000121D12688A43864B1B1D1A6006E0844ADE
:10552000121D12680A43824B1B1D1A60028932B990
:105530007F4A143212688A437D4B14331A60028901
:10554000012A06D17A4A143212680A43784B14337E
:105550001A60427B012A06D1754A1C3212680A433E
:10556000734B1C331A60724A126822F00102704BAE
:105570001A6010BD00218171C17101724172817286
:10558000C1728170C1700321017102214171012139
:10559000018070476649096841F00101644A116061
:1055A0001146096843F60E729143614A1160114633
:1055B000096841EA002111601146096821F00101E2
:1055C0001160704721B1026842F48032026003E04A
:1055D000026822F4803202607047E1B1026842F052
:1055E000800202604FF4C272125842F480734FF48A
:1055F000C27213504FF4CA72125842F480734FF4BF
:10560000CA7213504FF4D272125842F480734FF49E
:10561000D27213501BE0026822F0800202604FF445
:10562000C272125822F480734FF4C27213504FF4B6
:10563000CA72125822F480734FF4CA7213504FF496
:10564000D272125822F480734FF4D2721350704702
:1056500010B502460020936803F08063B3F1806FB9
:1056600000D110E0936803F00063B3F1006F01D143
:10567000012008E0936803F08053B3F1805F01D10B
:10568000022000E00420042879D002F5C07303EB67
:1056900000131B6803F0010402F5C07303EB001351
:1056A0001C600B7A7BB94B7A0C8843EA445302F5B1
:1056B000C07404EB00142468234302F5C07404EBA7
:1056C0000014236010E00B7A4C6843EAC4034C7A60
:1056D000234302F5C07404EB00142468234302F54D
:1056E000C07404EB001423608B7A03F00F038B72F9
:1056F00002F5C07303EB00135B6823F00F0402F59F
:10570000C07303EB00135C6002F5C07303EB00137E
:105710005B688C7A234302F5C07404EB0014636069
:105720008B7B1C064B7B44EA034403E0006400408F
:10573000006600400B7B44EA0323CC7A234302F546
:10574000C07404EB0014A3608B7C1C064B7C44EA01
:1057500003440B7C44EA0323CC7B234302F5C0744F
:1057600004EB0014E36002F5C07303EB00131B6845
:1057700043F0010402F5C07303EB00131C6010BD7D
:1057800010B50246002321B1012907D002290FD10B
:1057900009E09068F94C00EA04030BE09068F84CCB
:1057A00000EA040306E09068F64C00EA040301E016
:1057B000002300BF00BFF44C181BA34216D007DC27
:1057C00083B16FF08060184470B1022818D111E0E5
:1057D000B0F5007F10D0ED4C204448B1B0F5003F4B
:1057E0000ED10BE002230DE000230BE0002309E0C3
:1057F000002307E0012305E0012303E0012301E08A
:10580000002300BF00BFD8B210BD21B1012907D0CD
:1058100002290FD109E0826842F0800282600AE02A
:10582000826842F40042826005E0826842F400022D
:10583000826000E000BF00BF704710B500F5D8736C
:1058400003EB01131B6803F004031372137A53B9BB
:1058500000F5D87303EB01131B6840F2FF7404EAF0
:105860005353136009E000F5D87303EB01131B6871
:105870006FF0604404EAD303536000F5D87303EB80
:1058800001131B6803F00203537200F5D87303EB96
:1058900001135B6803F00F03937200F5D87303EBF9
:1058A00001135B681B0AD37400F5D87303EB011373
:1058B0009B68D37200F5D87303EB01139B681C0A35
:1058C000147300F5D87303EB01139B681C0C54731D
:1058D00000F5D87303EB01139B681B0E937300F55F
:1058E000D87303EB0113DB68D37300F5D87303EBB4
:1058F0000113DB681C0A147400F5D87303EB011361
:10590000DB681C0C547400F5D87303EB0113DB68DF
:105910001B0E937421B9C36843F02003C36003E0F6
:10592000036943F02003036110BD21B9C26842F04E
:105930002002C26003E0026942F020020261704767
:105940000246002019B9D36803F0030006E00129DC
:1059500003D1136903F0030000E00020704710B585
:1059600002460B4600204FF6FF71BBB9146824F0C5
:10597000020444F00104146000E0491E546804F07D
:105980000304012C01D00029F7D1546804F003046A
:10599000012C01D0002032E0012030E0012B13D196
:1059A000146824F00304146000E0491E546804F0F5
:1059B00003040CB10029F8D1546804F003040CB1BD
:1059C00000201CE001201AE0022B17D1146824F0FB
:1059D000010444F00204146000E0491E546804F01D
:1059E0000304022C01D00029F7D1546804F0030409
:1059F000022C01D0002002E0012000E0002010BDB8
:105A0000014600200A6822F0010242F002020A6008
:105A10004A6802F00302022A00D1012070470146C1
:105A20004FF6FF7200200B6823F002030B6000E0CA
:105A3000521E4B6803F00203022B01D1002AF7D15A
:105A40004B6803F00203022B00D00120704701468F
:105A500000208A6902F070007047014600208A69C0
:105A6000100E7047014600208A69C2F30740704754
:105A70001AB143690B43436102E043698B434361BD
:105A8000704710B50246002001F4700343B19369DA
:105A9000C1F3130423400BB101202DE000202BE0C3
:105AA00001F0807343B15368C1F3130423400BB179
:105AB000012021E000201FE001F0006343B1936862
:105AC000C1F3130423400BB1012015E0002013E0C3
:105AD00001F0007343B1D368C1F3130423400BB149
